:020000040800F2
:10000000F0040020AD020008190B0008090B0008DD
:10001000110B0008C9030008E913000800000000E4
:10002000000000000000000000000000491100086E
:10003000D103000800000000210B00085111000846
:10004000C7020008C7020008C7020008C70200086C
:10005000C7020008C7020008C7020008C70200085C
:10006000C7020008C7020008C7020008C70200084C
:10007000C7020008C7020008C7020008C70200083C
:10008000C7020008C7020008C7020008C70200082C
:10009000C7020008C7020008C7020008C70200081C
:1000A000C7020008C7020008C7020008C70200080C
:1000B000C7020008C7020008C7020008C7020008FC
:1000C000C7020008C7020008C7020008C7020008EC
:1000D000C7020008C7020008C7020008C7020008DC
:1000E000C7020008C702000800000000C70200089D
:1000F000C7020008C7020008C7020008C7020008BC
:10010000C7020008C7020008C7020008C7020008AB
:10011000C7020008C7020008C7020008C70200089B
:10012000C7020008C7020008C7020008C70200088B
:10013000C7020008C7020008C7020008C70200087B
:1001400000000000000000000000000000000000AF
:10015000C7020008C7020008C7020008C70200085B
:10016000C7020008C7020008C7020008C70200084B
:10017000C7020008C7020008C7020008C70200083B
:10018000C7020008C7020008C7020008C70200082B
:10019000C7020008C7020008C7020008C70200081B
:1001A000C7020008C7020008C7020008C70200080B
:1001B000C7020008C7020008C7020008C7020008FB
:1001C000C7020008C7020008C7020008C7020008EB
:1001D000C7020008C7020008C7020008C7020008DB
:1001E000C7020008C7020008C7020008C7020008CB
:1001F000C7020008C7020008C7020008C7020008BB
:10020000C7020008C7020008C7020008C7020008AA
:10021000C7020008C7020008C7020008C70200089A
:10022000C7020008C7020008C7020008000000005B
:10023000C7020008C702000800000000C70200084B
:10024000C7020008C7020008C7020008C70200086A
:10025000C7020008C7020008C7020008C70200085A
:10026000C7020008C7020008C7020008C70200084A
:10027000C7020008C7020008C7020008000000000B
:10028000C7020008C7020008C702000800000000FB
:1002900000000000C7020008DFF80CD000F018F8DA
:1002A00000480047F1130008F0040020064880478A
:1002B00006480047FEE7FEE7FEE7FEE7FEE7FEE74B
:1002C000FEE7FEE7FEE7FEE761110008990200087D
:1002D0001CB509480090094801900546009C06E0BD
:1002E000E06840F0010394E8070098471034AC42FE
:1002F000F6D3FFF7D5FF0000B02F0008D02F00087D
:100300002DE9F05F0546002092469B46884606464A
:10031000814640241BE0284641464746224600F0DD
:1003200041F853465A46C01A914110D31146184617
:10033000224600F028F82D1A67EB01084F462246A6
:100340000120002100F01FF817EB00094E41201E8C
:10035000A4F10104DFDC484631462A464346BDE8A5
:10036000F09FD2B201E000F8012B491EFBD270478A
:100370000022F6E710B513460A4604461946FFF771
:10038000F0FF204610BD202A04DB203A00FA02F1DB
:10039000002070479140C2F1200320FA03F3194373
:1003A00090407047202A04DB203A21FA02F0002115
:1003B000704721FA02F3D040C2F120029140084375
:1003C0001946704700000000FEE700000000000032
:1003D00070470000000000002DE9F04F82B00D686A
:1003E000002D00F0CA8000F1264342F2004603F1DE
:1003F000FF738705C5F602060A22B04247EA932733
:1004000008BF0922092F4FF0000438BF3A460127E0
:100410004FF0000C012600920BE000BF0D680CF1BC
:10042000040C35FA06F206F1010604F1020400F0AC
:10043000A480A6F1010907FA09FE15EA0E08EDD01D
:10044000D1F804B003230BF00305A3406A1E6FEA42
:10045000030A012A10D88268CB6802EA0A02A34084
:100460001A438260CBF30013426822EA0E0203FAB9
:1004700009F31A43426003E0032D01D1032520E074
:10048000C2688B6802EA0A02A340022D42EA030214
:10049000C26016D16FF003020CF01C0502EA59028B
:1004A0000F23024403FA05FBD2F820E00B692EEA81
:1004B0000B0EAB4043EA0E031362D1F804B00BF00D
:1004C0000305026805FA04F302EA0A021BF4403F3E
:1004D00042EA03020260A1D044F2F4430F25C5F6BC
:1004E00002031A6842F002021A601A6802F002025D
:1004F000019229F0030240F20849C5F60009019B68
:100500000CF00C0352F809E09D40009F2EEA05050F
:1005100007FA03F34FF0B0472B4342F80930D7F8FE
:1005200000E04B684EEA0805DA0258BF2EEA0805DB
:1005300040F2040EC5F6000E3D609F02DEF800207A
:1005400042EA080558BF22EA0805CEF800509D038C
:10055000DEF8802042EA080758BF22EA0807DB03DA
:10056000CEF88070DEF87C2042EA080758BF22EA05
:100570000807CEF87C70012750E702B0BDE8F08F85
:100580002DE9F04140F2E80540F20C08C2F2000506
:10059000C2F200082E6898F84020012A02D10220F9
:1005A000BDE8F081012288F8402098F84120012A16
:1005B00047D10022C8F84420422288F84120D8F8C8
:1005C000002093689B063ED491E898109362546291
:1005D000D7621368096923F44003194341F4800189
:1005E00011604FF00061C0F828C000F09DFAD8F803
:1005F0000000816809071DD441F288312A68921BE6
:100600008A423FD88268120714D42A68921B8A4211
:1006100038D8826812070DD42A68921B8A4231D8D2
:100620008268120706D42A68921B8A422AD88268F6
:100630001207E3D50821C160012088F8410000209D
:100640002AE0022028E041F288332C68A41B9C4257
:1006500018D89468A406B7D52C68A41B9C4211D85E
:100660009468A406B0D52C68A41B9C420AD8946850
:10067000A406A9D52C68A41B9C4203D89468A406A0
:10068000E3D4A1E7042088F84100D8F8440040F002
:100690000100C8F844000120002188F84010BDE89E
:1006A000F081000000000000F0B581B040F2E806E3
:1006B00040F20C05C2F20006C2F20005376895F858
:1006C0004010012902D1022001B0F0BD04460120F2
:1006D00085F8400095F8410001284FF002005DD1F7
:1006E0000021696485F841002868816889062ED454
:1006F0000021204600F018FA606A18BB286881685B
:1007000089071DD441F288313268D21B8A423DD814
:100710008268920714D43268D21B8A4236D8826823
:1007200092070DD43268D21B8A422FD88268920772
:1007300006D43268D21B8A4228D882689207E3D551
:100740000221C160012085F84100002026E041F22D
:1007500088313268D21B8A4218D882689206C7D57F
:100760003268D21B8A4211D882689206C0D532689C
:10077000D21B8A420AD882689206B9D53268D21B47
:100780008A4203D882689206E3D4B1E7042085F850
:100790004100686C40F0010068640120002185F888
:1007A000401001B0F0BD000080B544F2384EC5F6EF
:1007B000020E5EF8103C5EF8101C5EF80C2CC1F3C3
:1007C000053CDEF80410BCF1000F15D0C908D206B4
:1007D00001EAE2716FF35F3100EE101A03F00301DA
:1007E0000229B8EE400A0CD071B95EF8381C8906AF
:1007F0000DD49FED351A18E000218160C0E9001189
:1008000080BD9FED301A10E09FED2D1A0DE05EF8CF
:10081000381C49F20002C0F2D032C1F3C10122FA01
:1008200001F101EE101AB8EE411ADEF800109FED4A
:10083000273A6FF35F2102EE101ADEF80010C1F3C1
:100840004621B8EE422A00EE032A00EE10CAB7EEA7
:10085000003AB8EE400A81EE000A32EE031A02EEC8
:10086000101AB8EE422A20EE010A32EE031A80EE88
:10087000011ABCEEC11A80ED001ADEF80010C1F3B7
:10088000064101EE101AB8EE411A31EE031A80EE5D
:10089000011ABCEEC11A80ED011ADEF80010C1F396
:1008A000066101EE101AB8EE411A31EE031A80EE1D
:1008B000010ABCEEC00A10EE101A816080BD00BFB4
:1008C0000024744A20BCBE4B0024744C0000003944
:1008D00080B544F2404EC5F6020E5EF8183C5EF854
:1008E000181C5EF8142CC1F3055CDEF80410BCF192
:1008F000000F15D0C908D20501EAE2716FF35F312C
:1009000000EE101A03F003010229B8EE400A0CD0E1
:1009100071B95EF8401C89060DD49FED351A18E0B8
:1009200000218160C0E9001180BD9FED301A10E008
:100930009FED2D1A0DE05EF8401C49F20002C0F256
:10094000D032C1F3C10122FA01F101EE101AB8EE62
:10095000411ADEF800109FED273A6FF35F2102EE97
:10096000101ADEF80010C1F34621B8EE422A00EE5C
:10097000032A00EE10CAB7EE003AB8EE400A81EE44
:10098000000A32EE031A02EE101AB8EE422A20EEE6
:10099000010A32EE031A80EE011ABCEEC11A80ED94
:1009A000001ADEF80010C1F3064101EE101AB8EE8D
:1009B000411A31EE031A80EE011ABCEEC11A80ED25
:1009C000011ADEF80010C1F3066101EE101AB8EE4C
:1009D000411A31EE031A80EE010ABCEEC00A10EE95
:1009E000101A816080BD00BF0024744A20BCBE4B39
:1009F0000024744C0000003944F20041C5F60201A5
:100A00000869C0F3C20003280FD002282CD080BB95
:100A10000868800649F20000C0F2D03058BF704725
:100A20000968C1F3C101C84070478A6A886AC0F387
:100A3000051CC86ABCF1000F4B6B1FD000F0010011
:100A400002F003024042022A00EAD3006FF35F3053
:100A500000EE100AB8EE400A12D0A2B9086880066B
:100A600014D49FED261A1EE047F64000C0F27D1018
:100A7000704740F60010C0F23D00704700207047FC
:100A80009FED1D1A0FE09FED1B1A0CE0086849F25C
:100A90000002C0F2D032C0F3C10022FA00F001EE31
:100AA000100AB8EE411A086B9FED153A6FF35F20FC
:100AB00002EE100A086BC0F34620B8EE422A01305D
:100AC00000EE032A00EE10CAB7EE003AB8EE400A74
:100AD00081EE000A32EE031A20EE010A01EE100A3E
:100AE000B8EE411A80EE010ABCEEC00A10EE100A00
:100AF000704700BF0024744A20BCBE4B0024744CD5
:100B00000000003900000000FEE7000000000000C7
:100B1000FEE7000000000000FEE70000000000000B
:100B20007047000000000000D0F824C0B1F1406F11
:100B300018BFBCF1000F07D040F20C02836AC2F26A
:100B40000002013B126813612DE9F04F8369026ACC
:100B5000CBB3002A6AD040F20C078568C2F20007C6
:100B6000C469002CD7F800E0D0E90487CEF81C5007
:100B70004FEA874BD0E90B96456B00F08180D0F8A7
:100B800000A0C76847EA0A07B1F1406F46EA0706C6
:100B900046EA090645EA060545EA0B0545EA080561
:100BA00045EA010545EA0C0743EA070342EA030266
:100BB00042EA0401CEF8141000F0CC804068CEF870
:100BC0001800BDE8F08F002A6CD040F20C03C56914
:100BD000C2F20003002DD0E904E6D3F80080836858
:100BE0004FEA8646C8F81C30D0E90B94436B7BD0A3
:100BF000C768B1F1406F44EA070444EA090443EAD4
:100C0000040343EA060343EA0E0343EA010343EA0B
:100C10000C0342EA030242EA0501C8F8141000F08E
:100C200099804068C8F81800BDE8F08F4769C2692C
:100C3000BF04D0E90B84002A456B63D0D0F800E0F4
:100C4000C66846EA0E06B1F1406F46EA040646EA77
:100C5000080646EA050647EA060740F20C06C2F215
:100C6000000647EA010747EA0C05376843EA05032F
:100C700043EA020179616DD04068B861BDE8F08F48
:100C80000068304340EA0900284340EA0B0040EA8C
:100C90000800084340EA0C0018431043CEF8140043
:100CA000BDE8F08FC269002A3ED0D0E90B764369D7
:100CB0003743456BB1F1406F47EA0507C66847EA1D
:100CC000834340F20C07C2F2000743EA060343EAFB
:100CD00001063B6846EA0C0747EA0201596139D030
:100CE00040689861BDE8F08F49EA0400184330433A
:100CF00040EA0E00084340EA0C001043C8F8140014
:100D0000BDE8F08F006840F20C022043C2F20002FE
:100D100040EA0800284338430843116840EA0C00C1
:100D200018434861BDE8F08FBCF1000F08BFBDE873
:100D3000F08FD0E90B3742693B43406B184340F2D8
:100D40000C03C2F2000340EA824008431A6840EAFA
:100D50000C005061BDE8F08FB0B5A2B066200090E5
:100D600068464FF4807506950024CDE90744CDE927
:100D70000B440D9409940594FFF796FC08B122B03A
:100D8000B0BD4FF080701D90052014901020109081
:100D90004FF480001390012011900F9014A80EA919
:100DA0001C94CDE91A54CDE91F44219419940E9452
:100DB0001294FFF7E5FB0028E1D1992000906846E6
:100DC000FFF772FC0028DAD14FF480701A900020EF
:100DD0002190CDE91B00CDE91F004FF080711D91DE
:100DE0001990052114910EA90E90129010201090C8
:100DF0004FF480001390012011900F9014A8FFF77A
:100E0000BFFB22B0B0BD000070B544F2004EC5F685
:100E1000020EDEF8283003F00303032B01D101207A
:100E200070BD40F2E80CDEF80030C2F2000C23F096
:100E30008063CEF80030DCF80030DEF800201201CC
:100E400023D5DCF80020D21A022A00F2A980DEF8AD
:100E50000020120119D5DCF80020D21A022A00F273
:100E60009F80DEF8002012010FD5DCF80020D21A96
:100E7000022A00F29580DEF80020120105D5DCF888
:100E80000020D21A022AD8D98AE0DEF82820C668C3
:100E900090E8380022F47C32012942EA0332A4F1BE
:100EA00001036FF35F234FF47E4404EB4524CEF837
:100EB0002820A4B24FF0FE4504EB03024FF4FE03DA
:100EC000046903EB064303F4FE0305EB04641A44D0
:100ED00004F0FE431A44CEF83820DEF82C20436993
:100EE00022F0C00242EA0302CEF82C20DEF82C20C9
:100EF000836922F0200242EA0302CEF82C20DEF8B9
:100F00002C204FF6F87322F01002CEF82C20DEF8D9
:100F10003C20C06922EA030242EAC000CEF83C004D
:100F20004FF40012DEF82C0008BF4FF4801240F09E
:100F300010000029CEF82C0008BF4FF40022DEF884
:100F40002C001043CEF82C00DEF8000040F080604A
:100F5000CEF80000DCF80000DEF80010090121D412
:100F6000DCF80010091A02291AD8DEF8001009016D
:100F700018D4DCF80010091A022911D8DEF8001084
:100F800009010FD4DCF80010091A022908D8DEF88C
:100F90000010090106D4DCF80010091A0329DBD37C
:100FA000032070BD002070BD70B544F2004EC5F640
:100FB000020EDEF8283003F00303032B01D10120D9
:100FC00070BD40F2E80CDEF80030C2F2000C23F0F5
:100FD0008053CEF80030DCF80030DEF800209200BC
:100FE00023D5DCF80020D21A022A00F2A980DEF80C
:100FF0000020920019D5DCF80020D21A022A00F253
:101000009F80DEF8002092000FD5DCF80020D21A75
:10101000022A00F29580DEF80020920005D5DCF867
:101020000020D21A022AD8D98AE0DEF82820C66821
:1010300090E8380022F07C72012942EA0352A4F1C0
:1010400001036FF35F234FF47E4404EB4524CEF895
:101050002820A4B24FF0FE4504EB03024FF4FE0338
:10106000046903EB064303F4FE0305EB04641A442E
:1010700004F0FE431A44CEF84020DEF82C204369E9
:1010800022F4406242EA0302CEF82C20DEF82C2043
:10109000836922F4007242EA0302CEF82C20DEF8C3
:1010A0002C204FF6F87322F48072CEF82C20DEF854
:1010B0004420C06922EA030242EAC000CEF844009C
:1010C0004FF08072DEF82C0008BF4FF4000240F4AD
:1010D00080700029CEF82C0008BF4FF48002DEF8A3
:1010E0002C001043CEF82C00DEF8000040F08050B9
:1010F000CEF80000DCF80000DEF80010890021D4F2
:10110000DCF80010091A02291AD8DEF8001089004C
:1011100018D4DCF80010091A022911D8DEF80010E2
:1011200089000FD4DCF80010091A022908D8DEF86B
:101130000010890006D4DCF80010091A0329DBD35B
:10114000032070BD002070BD70470000000000004B
:1011500040F2E800C2F2000001680131016070470E
:101160004EF6885042F2000CCEF20000C5F2002C80
:10117000016841F470010160DCF8000000F00F002C
:10118000062806D8DCF80000072161F30300CCF83C
:10119000000044F200404EF67F52C5F60200CEF643
:1011A000F622016841F0010101600021016103683C
:1011B0001A400260DCF80020120706D5DCF8002097
:1011C000072363F30302CCF8002040F20022816180
:1011D000C161C0F20222016282620022C0F2FF12EB
:1011E000C26240F28022C0F2011202634163826354
:1011F000C16302644164026822F4802202600166D5
:1012000041F20000C5F600400068B1EB507F05D107
:1012100048F208100121C5F20010016044F20000FC
:1012200043F2D201C5F200200160704700000000C7
:1012300010B5D0F800C0DCF81CE00EEA010E8E45B7
:1012400017D040F2E80EC2F2000E00BFDEF80040F8
:10125000A41A9C4210D8DCF80040640744BFDCF8B4
:101260001C405FEA04545DD4DCF81C400C408C4206
:10127000ECD1002010BD00BF016851E8001F0268DA
:1012800021F4D07142E80013F3B1016851E8001F66
:10129000026821F4D07142E80013002B1FBF0168DF
:1012A00051E8001F026821F4D0711CBF42E800130E
:1012B000002B09D0016851E8001F026821F4D071A9
:1012C00042E80013002BD7D1016851E8021F0268E1
:1012D00021F0010142E80213F3B1016851E8021F55
:1012E000026821F0010142E80213002B1FBF0168D0
:1012F00051E8021F026821F001011CBF42E80213FD
:10130000002B09D0016851E8021F026821F0010199
:1013100042E80213002BD7D12021C0F8841000F13D
:1013200088015AE04FF40061CCF82010016851E8C0
:10133000001F026821F4D07142E80013F3B1016884
:1013400051E8001F026821F4D07142E80013002B1D
:101350001FBF016851E8001F026821F4D0711CBF53
:1013600042E80013002B09D0016851E8001F026811
:1013700021F4D07142E80013002BD7D1016851E865
:10138000021F026821F0010142E80213F3B1016873
:1013900051E8021F026821F0010142E80213002B0C
:1013A0001FBF016851E8021F026821F001011CBF44
:1013B00042E80213002B09D0016851E8021F0268BD
:1013C00021F0010142E80213002BD7D12021C0F8FF
:1013D0008410C0F8881000F18C0120220A600021DE
:1013E00080F88010032010BDFEE700000000000020
:1013F000B4B04EF61457CEF200073868800312D40A
:10140000BFF34F8FBFF36F8F0020C7F83C02BFF3CD
:101410004F8FBFF36F8F386840F400303860BFF3F0
:101420004F8FBFF36F8F3868C0035AD400203867DE
:10143000BFF34F8FF96E0123CA0843F6E07AC1F378
:10144000C906C1F34E30A6F1020903EBD101731EA8
:101450004FEA827B01F003044FEA83784FEA8971F7
:101460000191F11E009103E00028A0F101002ED0AF
:101470000AEA401531469CB1012C4BEA0501C7F838
:101480004C1219460CD0022C48EA0501C7F84C1240
:10149000494605D001992943C7F84C12009900BF6D
:1014A000032EE1D345EA8175013105F1404285F013
:1014B000004C05F1804E00BF0439C7F84C52C7F804
:1014C0004C22C7F84CC2C7F84CE2F5D1CCE7BFF3C9
:1014D0004F8F386840F480303860BFF34F8FBFF3D0
:1014E0006F8F57F8080C4FF6FF01084040F20031AB
:1014F00044F21846C0F2FA51C5F60206084347F80E
:10150000080CFFF779FA316842F68E7BC0F6000BC3
:1015100044F6D35AC1F30321C1F2620A40F2000932
:101520001BF80110C2F20009356801F01F0120FA12
:1015300001F3C9F80030A3FB0A014FF0FF3000EBC4
:1015400091120021B1EB126F2CD14EF21003CEF2AA
:1015500000035A60F022FA73072299601A6057F864
:10156000082CC2F3022282F00703042B28BF0423B5
:10157000033A38BF0A4698400121C0439040000119
:10158000F87340F2EC00C2F200000170D6F8DC0003
:1015900040F00200C6F8DC00D6F8DC0000F00200E3
:1015A000029002980DF1080844F61804BC21404648
:1015B000C5F60204FEF7DCFE54F80C0C40F2E80518
:1015C000400754F80C0CC2F2000500F1A280002084
:1015D0003190206840F440402060206800F4404092
:1015E000319040F22C40C5F60000016841F0010145
:1015F0000160006800F0010031903198206880049B
:1016000009D4206880045CBF20685FEA804002D46F
:1016100020688004F2D556F8080C00F038013069D3
:10162000102907D0182940F0A68000F003000228F6
:1016300040F0A18056F8180C56F8080C00F038005D
:10164000182840F0C780306940F2F3310840522832
:10165000B06902BF01466FF35F21BF2940F03A81B4
:1016600000F47E41B1F5007F04BF00F4FE01B1F546
:10167000803F40F02F8100F0FE40B0F1807F40F0CD
:10168000298142F20000C5F20020016811F00C0F20
:1016900009D10168042262F303010160016801F0CD
:1016A0000F01042930D13168490604D4316804227D
:1016B00062F3061131607168490604D4716804222E
:1016C00062F3061171607168490504D471680422DF
:1016D00062F30A217160B168490604D4B16804223A
:1016E00062F30611B1603168090704D43168082239
:1016F00062F303013160316821F47061316056F8A2
:10170000181C890100F1EB80EFF3108072B600BF66
:10171000FEE7022161F3020044F80C0C286854F83B
:10172000141C89043FF553AF2968091AB1F57A7F73
:101730003FF64DAF54F8141C89043FF548AF2968B3
:10174000091AB1F57A7F3FF642AF54F8141C8904A8
:101750003FF53DAF2968091AB1F57A7F3FF637AFFB
:1017600054F8141C89043FF532AF2968091AB1F501
:101770007A7FD4D92BE756F8180C40F4803046F81D
:10178000180C286856F8181C89033FF555AF2968CE
:10179000091A642900F29E8056F8181C89033FF547
:1017A0004BAF2968091A642900F2948056F8181C76
:1017B00089033FF541AF2968091A642900F28A803C
:1017C00056F8181C89033FF537AF2968091A6429B0
:1017D000D8D97FE056F8180C20F0807046F8180C25
:1017E000286856F8181C89011CD52968091A02298D
:1017F00070D856F8181C890114D52968091A0229CD
:1018000068D856F8181C89010CD52968091A0229CC
:1018100060D856F8181C890104D52968091A0229CC
:10182000DFD957E0306940F2F33188434FF6F87161
:101830005230306140F2BF20C0F20110B0617069D7
:1018400020F001007061F0698843F0617069022145
:1018500061F383007061706920F00200706170694B
:1018600040F480307061706940F4003070617069DC
:1018700040F480207061706940F00100706156F89A
:10188000180C40F0807046F8180C286856F8181CA0
:1018900089013FF5F6AE2968091A02291AD856F8C7
:1018A000181C89013FF5EDAE2968091A022911D8E3
:1018B00056F8181C89013FF5E4AE2968091A022977
:1018C00008D856F8181C89013FF5DBAE2968091ABB
:1018D0000229DBD9EFF3108072B600BFFEE756F89D
:1018E000081C032262F3020146F8081C296841F231
:1018F000883256F8083C03F03803182B25D02B68A3
:101900005B1A93423FF600AF56F8083C03F03803E9
:10191000182B1AD02B685B1A93423FF6F5AE56F897
:10192000083C03F03803182B0FD02B685B1A934246
:101930003FF6EAAE56F8083C03F03803182B04D003
:101940002B685B1A9342D4D9DEE6316801F00F01AF
:10195000092904D33168082262F303013160016868
:1019600001F00F0105290AD30168042262F3030183
:101970000160006800F00F0004287FF4C5AE3068F5
:1019800000F07000412804D33068042161F3061090
:101990003060706800F07000412804D37068042142
:1019A00061F306107060706800F4E060B0F5806F5D
:1019B00004D97068042161F30A207060B06800F0F7
:1019C0007000412804D3B068042161F30610B060B0
:1019D000FFF712F83168C1F303211BF801103368D7
:1019E00001F01F01C840C9F80000A0FB0A124FF027
:1019F000FF3101EB92120021B1EB126F7FF484AE44
:101A000040F2EC004EF21004C2F20000CEF20004EC
:101A100003786260F022FA73002BA1604FF0070197
:101A200021603FF471AE57F8081C4FF0000A4FF0E8
:101A3000FF33C1F3022181F00702042A28BF0422E8
:101A4000033938BF514603FA02F2D24302FA01F1D8
:101A50000901F973012101704FF000700290CDF877
:101A600050A0706B20F0300070639DF80900800674
:101A700023D51A984FEA304005280DD8DFE800F04A
:101A8000030F15030303B06B1A9920F4E0204FF005
:101A9000000A0843B06310E04FF0010A0DE008F1BE
:101AA00004000121FFF7B0F904E008F1240001214E
:101AB000FFF77AFA82460028E5D09DF80900400633
:101AC00001D4544622E02D984FEA307005280BD8F7
:101AD0005446DFE800F012030C12121208F1040061
:101AE0000121FFF791F907E0012401220FE008F13D
:101AF00024000121FFF758FA044622463CB9306C15
:101B00002D9920F0E04000240843306452469DF8AF
:101B1000090000061DD51D9890B1B0F1005F07D0F7
:101B2000B0F1805F26D1706940F40030706107E049
:101B300008F1040001211446FFF766F92246044625
:101B4000A2463CB9B06B1D9920F0405000240843D8
:101B5000B06392469DF80B00C00721D0139803286C
:101B60000CD8DFE800F014020E14706940F4003065
:101B700070610CE001244FF0010AEBE70124012120
:101B80000FE008F104000221FFF73EF90446214668
:101B90003CB9706B139920F0030000240843706374
:101BA00051460298420201D48A462CE0D6F8E82336
:101BB00042F48072C6F8E8232A68D6F8E833DB05D9
:101BC0001FD42B689B1A642B17D8D6F8E833DB0593
:101BD00017D42B689B1A642B0FD8D6F8E833DB0593
:101BE0000FD42B689B1A642B07D8D6F8E833DB0593
:101BF00007D42B689B1A642BDFD903244FF0030A08
:101C000001E0A2468CB1C0075AD020984FEAF000FC
:101C1000052843D8DFE800F04B03454B4B4B08F158
:101C200004000121FFF7F0F840E0B36D2E9A534015
:101C300013F4407F0BD0B36DB46D44F48034B465BD
:101C4000B46D23F4407324F48034B465B365B2F505
:101C5000807F49D12B6841F2883C4FF0030AB46D74
:101C6000A40741D42C68E41A6445C6D8B46DA4070F
:101C70003AD42C68E41A6445BFD8B46DA40733D4B1
:101C80002C68E41A6445B8D8B46DA4072CD42C6829
:101C9000E41A64454FF00304E1D9B4E701240122BA
:101CA0000FE008F124000121FFF77EF904462246E7
:101CB0003CB9F06B209920F0380000240843F06311
:101CC00052469DF8080080073ED51F98052826D863
:101CD000DFE800F031032931313108F1040001213E
:101CE0001446FFF791F824E04FF62F7C56F8084C85
:101CF000C0F2FF0C02F4407E0CF1A00324F47C54EB
:101D000003EA1213BEF5407F08BF1C436FF31F3276
:101D100046F8084C0024B36D1A43B26544E7012429
:101D20004FF0010A11E008F1240001211446FFF7E9
:101D30003BF922460446A2463CB9F06B1F9920F0BD
:101D4000070000240843F06392469DF8080040070E
:101D50001FD5269805280AD8DFE800F012030C12D8
:101D6000121208F104000121FFF74EF807E00124E8
:101D700001220FE008F124000121FFF715F90446C4
:101D800022463CB9306C269920F007000024084315
:101D9000306452469DF80800800624D525984FEA05
:101DA000307005280BD8DFE800F015030D15151568
:101DB00008F1040000211446FFF726F808E001248A
:101DC000012311E008F1240002211446FFF7ECF88A
:101DD0002246044623463CB9F06B259920F0E040AA
:101DE00000240843F06313469DF80800400625D5FB
:101DF00028984FEAB02005280BD8DFE800F016033A
:101E00000E16161608F1040000211C46FEF7FCFF12
:101E100009E001244FF0010A11E008F12400022139
:101E20001C46FFF7C1F823460446A2463CB9306C75
:101E3000289920F4E0500024084330649A469DF825
:101E40000800000621D529984FEA703005280AD8E5
:101E5000DFE800F012030C12121208F10400002156
:101E6000FEF7D2FF07E0012401230FE008F1240070
:101E70000221FFF799F8044623463CB9306C2999B2
:101E800020F4604000240843306453460298010760
:101E900004D4C10619D400032ED44DE02299B1F523
:101EA000805F0BD108F1240002219A46FFF77CF8ED
:101EB0005346002818BF012302982299F26B22F49E
:101EC00040521143F163C106E5D52799B1F5807FF2
:101ED0000BD108F1240002219A46FFF765F853461A
:101EE000002818BF012302982799326C22F440720F
:101EF0001143316400031FD52A98B0F5003F12D07A
:101F0000B0F5803F07D060BB08F1040000211C46FB
:101F1000FEF77AFF05E008F1240002211C46FFF7D6
:101F200043F82346044622463CB9306C2A9920F4F3
:101F300040300024084330641A469DF80A004007E8
:101F400023D52398B0F5401F16D0B0F5001F0BD055
:101F5000B0F5801F40F0BA81706940F400307061C4
:101F60000AE001240122E8E708F1240001211446D7
:101F7000FFF71AF822460446A2463CB9F06B2399B3
:101F800020F4401000240843F06392469DF80A00B4
:101F9000C00701D153461BE01598B0F5803F05D02E
:101FA000A0B9706940F40030706105E008F10400E8
:101FB0000221FEF729FF044623464CB9706B1599A0
:101FC00020F48030002408437063E3E701240123F8
:101FD0000298810015D4810322D4C10236D4C100F5
:101FE0003CD4810244D441004AD4B0F1FF3F56DDD5
:101FF00000025CD4002B62D0EFF3108072B600BFF9
:10200000FEE708F124000221A0461C46FEF7CCFFA3
:1020100023464446002818BF012302988103DCD5DB
:1020200021996FF0010202EB3122022A08D34FEA14
:1020300031222AB1012A06D1726942F4003272615A
:10204000002C00F084800123C102C8D5B16B1E9A18
:1020500021F000411143B163C100C2D556F8081CFC
:102060002F9A21F48041114346F8081C8102BAD509
:10207000B16B1C9A21F080711143B1634100B4D55A
:1020800056F8081C21F4004146F8081C309956F80F
:10209000082C114346F8081CB0F1FF3FA8DC716B17
:1020A000169A21F04051114371630002A2D5F06BE2
:1020B000249920F440000843F063002B9CD10024B5
:1020C0000694D6F8C8004FF0005140F00400C6F85E
:1020D000C800D6F8C8004FF0010A00F004003190A3
:1020E000319840F61800C5F6020001604FF4005028
:1020F00002900020C5F6020002A900F50060CDF8AC
:102100000CA0CDE90444FEF767F940F2580841F20B
:102110000002C2F20008C4F201024FF4E130C8F834
:102120000020C8E90104C8E903440C20C8E90504FB
:10213000C8E90744C8E90944D8F8841081B14FF0D0
:10214000000C4FF0000E00234FF0000A50E0F26B3D
:1021500022F440721143F163C1027FF540AF75E78D
:1021600088F880400024D6F8D800C5F6020440F074
:102170001000C6F8D800D6F8D80000F01000029081
:102180000298D6F8C80040F00100C6F8C800D6F89A
:10219000C80000F0010002900298D6F8C80040F094
:1021A0000100C6F8C800D6F8C80000F0010002908F
:1021B00002984FF4007002900220CDE9030A0DF15D
:1021C000080A032005900720069020465146FEF796
:1021D00003F94FF48060029020465146FEF7FCF868
:1021E000D8F80020D8E902ACD8E90430D8E9064E86
:1021F0002421C8F88410116821F00101116043EA1C
:102200000A0146F6F31A1368CCF6FF7A084303EA8C
:102210000A0108434FF2FF4140EA0E001060506887
:10222000C1F2FF1120F4405040EA0C005060002041
:10223000C5F60200A0F5FA33D8F820009A4218BF7C
:1022400004439068084047F2FF7120439060D06AD1
:10225000D8F824C020F00F00C4F2000140EA0C00BE
:102260008A42D0624FF0800021DD40F6FF71C4F257
:1022700001018A422EDD40F60041C5F600018A4286
:1022800049D041F20041C4F201018A4205D041F235
:102290000001C4F201018A4246D1F06BC0F3C200D2
:1022A000062840D242F66A71C0F6000130E044F6DA
:1022B000FF31C4F200018A4215DC44F20041C4F24D
:1022C00000018A421BD044F6000114E001244FF0C3
:1022D000010A5BE647F60001C4F200018A420ED013
:1022E00047F6004107E044F60041C4F200018A428B
:1022F00005D045F20001C4F200018A4214D1F06B0E
:1023000000F0070006280ED242F67071C0F60001F8
:102310000844007808E0306C00F00700062802D27C
:102320000FF62041F4E780209A4200F0638040F6E7
:102330000011BEF5004FC0F23D0140F0A1804028E1
:1023400000F20982DFE810F041005B01070207029A
:1023500079010702070207027E010702070207024E
:1023600007020702070207023F01070207020702EE
:102370000702070207020702070207020702070215
:102380000702070207020702890107020702070284
:1023900007020702070207020702070207020702F5
:1023A00007020702070207020702070207020702E5
:1023B00007020702070207020702070207020702D5
:1023C00007020702070207028701FEF715FB3168C3
:1023D000C1F303211BF80110326802F00F0201F073
:1023E0001F01C840C9F800001BF802107268C2F350
:1023F000021218E1811E1E2900F29D8040F6001095
:10240000C0F23D00DFE811F01F00A7019D00A70109
:10241000A701A701A200A701A701A701A701A70182
:10242000A701A701AC00A701A701A701A701A70168
:10243000A701A701A701A701A701A701A701A7015C
:10244000A701A701B900FEF7D7FA3168C1F303214C
:102450001BF80110326802F00F0201F01F01C840A2
:10246000C9F800001BF80210B268C2F3021201F0B2
:102470001F01C8401BF8022002F01F01C84069E09C
:10248000402800F26881DFE810F041000401660195
:102490006601220166016601660127016601660187
:1024A00066016601660166016601AC0066016601AF
:1024B00066016601660166016601660166016601E4
:1024C0006601660166016601660131016601660109
:1024D00066016601660166016601660166016601C4
:1024E00066016601660166016601660166016601B4
:1024F00066016601660166016601660166016601A4
:10250000660166016601660166012F01FEF774FA35
:102510003168C1F303211BF80110326802F00F0289
:1025200001F01F01C840C9F800001BF802107268D2
:10253000C2F30212C1E0402840F00D814FF4004088
:102540001BE002A8FEF730F9039803E031A8FEF77C
:10255000BFF93298002800F0E080D8F824C00CE0E1
:1025600056F8180C800649F20000C0F2D03004D5AD
:1025700056F8181CC1F3C101C84042F67671D8F86C
:102580000420C0F6000131F81C10B0FBF1F002EBA2
:1025900042018842C0F0DF801103884200F2DB80F4
:1025A000010E0023000210EB520041F10001FDF783
:1025B000A7FE4FF60052A0F54071C0F20F02914203
:1025C000C0F0A880C7E056F8180C49F20001800658
:1025D000C0F2D03141D556F8180CC0F3C100C1404B
:1025E0003BE056F8180C49F200018006C0F2D031E9
:1025F0007CD556F8180CC0F3C100C14076E0FEF758
:10260000FBF93168C1F303211BF80110326802F0B5
:102610000F0201F01F01C840C9F800001BF80210AA
:102620007268C2F302221BF8022001F01F01C840A9
:1026300002F01F0120FA01F108E002A8FEF7B4F849
:10264000039903E031A8FEF743F93299002964D0D9
:10265000D8F824C001E04FF4004142F67670C0F68D
:10266000000030F81C00B1FBF0F0D8F804104A0864
:1026700002EB40004FF6EF72B0FBF1F0A0F1100159
:10268000914268D84FF6F0710140C0F3420008440F
:1026900040E0FEF7B1F93168C1F303211BF80110E6
:1026A000326802F00F0201F01F01C840C9F80000B3
:1026B0001BF802107268C2F302221BF8022001F01C
:1026C0001F01C84002F01F0120FA01F108E002A832
:1026D000FEF76AF8039903E031A8FEF7F9F832999A
:1026E000D9B1D8F824C001E04FF4004142F6767029
:1026F000D8F80420C0F6000030F81C00B1FBF0F060
:1027000000EB5200B0FBF2F0A0F110014FF6EF72B7
:10271000914220D8D8F80010C860D8F828104FF09F
:102720000110C8F868004FF00000C8F87000C8F841
:102730007400C1B1C807D8F8000017D18A071ED4A9
:102740004A0725D40A072CD4CA0633D48A063AD4B9
:102750004A0641D452E04FF00110C8F8680000204A
:10276000C8E91C0084E0D8F8000050E04268D8F8BE
:102770002C3022F400321A4342608A07E0D54268C6
:10278000D8F8303022F480321A4342604A07D9D553
:102790004268D8F8343022F480221A4342600A0793
:1027A000D2D54268D8F8383022F400421A43426049
:1027B000CA06CBD58268D8F83C3022F480521A433E
:1027C00082608A06C4D58268D8F8403022F400526C
:1027D0001A4382604A0611D54268D8F8443022F480
:1027E0008012B3F5801F42EA0302426006D14268BC
:1027F000D8F8483022F4C0021A434260090606D5D0
:102800004168D8F84C2021F400211143416041680F
:1028100021F490414160816821F02A0181600168C2
:1028200041F0010101600021C8F88C10D5F800903A
:10283000016809070DD540F258044FF40011C2F2A7
:1028400000046FF07E4320464A46FEF7F1FC78B95B
:1028500020680068400710D540F258004FF480010E
:10286000C2F200006FF07E434A46FEF7E1FC20B161
:1028700098F8800001280AD183E02020C8F884005D
:10288000C8F888000020C8F86C0088F880004FF075
:10289000240CC8F884C0D8F80000D8F864B042F618
:1028A0009E7942F6A67ED0F800A0BBF1000F016829
:1028B000C0F6000921F0010101608168C0F6000E38
:1028C00021F06041816013D081688268520FC1F3AA
:1028D000426419F802301EF802101A011EF8043082
:1028E000B2FBF1F119F804201201B2FBF3F201E09E
:1028F00001210122A8F86A10BBF1000FA8F8682096
:10290000C0F800A04FF0200AC8F884A0C8F884C01E
:102910000168026822F001020260826822F06062AF
:10292000826013D082688468640FC2F3426219F82F
:1029300004301EF804401B01B3FBF4F419F8023014
:102940001EF802201B01B3FBF2F201E00124012278
:10295000A8F86A40A8F8682001602421C8F884A07B
:10296000C8F884100168026821F0005122F00102C9
:1029700002600022C8F864200160C8F884A088F8CA
:10298000802040F20C0B4821C2F2000B0BF1040036
:10299000FDF7EEFC45F200010123C5F200212022E3
:1029A0001024086820F0010008600020CBF84400E3
:1029B0008BF84100CBF80010CBF80430CBF808209E
:1029C000CBF80C401624CBE90440CBE90630CBF819
:1029D0002000D5F800909BF841A0BAF1000F40F01C
:1029E0009F80D6F8BC1041F2004841F48041C6F8FF
:1029F000BC10D6F8BC10C5F6020801F48041029163
:102A00000299716E41F480417166716E21F48041CA
:102A10007166D6F8C81041F02001C6F8C810D6F883
:102A2000C81001F0200102910299D6F8C81041F0B7
:102A30004001C6F8C810D6F8C81001F04001029154
:102A40000299D6F8C81041F02001C6F8C810D6F88F
:102A5000C81001F0200102910299D6F8C81041F087
:102A60002001C6F8C810D6F8C81001F02001029164
:102A70000299D6F8C81041F02001C6F8C810D6F85F
:102A8000C81001F0200102910299D6F8C81041F057
:102A90002001C6F8C810D6F8C81002AE01F0200117
:102AA000029102990221CDE90310032005904FF411
:102AB000806002900920069040463146FDF78CFC6C
:102AC0004020029008F5806031460A240694FDF704
:102AD00083FC4FF480700290404631460694FDF727
:102AE0007BFC4FF400700290404631460694FDF79F
:102AF00073FC802002904046314609240694FDF77D
:102B00006BFC40200290404631460694FDF764FC81
:102B1000DBF8001041F28830DBF80820CBF84800E1
:102B20000B686FF0FF0623F4706306EB02221A4372
:102B30000A608A6892062DD44FF62F720868C0F298
:102B4000FF02DBF804301040DBF80C603043DBF8A8
:102B50001060DBE9072440EA0360DBF8143010431F
:102B60004FF6FE02204308604868CFF6E07210403E
:102B7000DBF81820184340EA064010434860086814
:102B800040F0010008600020CBF8440001208BF8E1
:102B900041000DE0BAF1000F00F08D80286804209C
:102BA0008BF84100DBF8440040F00100CBF8440012
:102BB000FEF7D2F84FF080700B9003200C909F200E
:102BC000029002A84FF48078CDF820804FF400598D
:102BD000CDF814900026CDE90D660F96CDE9096673
:102BE0000796FDF761FD2968DBF8000082699BF814
:102BF0004030012B00F0B28001238BF840309BF86D
:102C00004140012C40F0A7800024CBF8444022240E
:102C10008BF8414004690134CBF838400469013431
:102C2000CBF8344031ACCBF83040446963F39B645B
:102C300044618261DBF83820002A66D031AA41F273
:102C400088330EE090F8204002F8014BCBF830209A
:102C5000DBF83840013CCBF83840DBF83840002C3A
:102C600053D0846814F0060FECD12C68641A9C428F
:102C700017D8846814F0060FE4D12C68641A9C42BB
:102C80000FD8846814F0060FDCD12C68641A9C42BB
:102C900007D8846814F0060FD4D12C68641A9C42BB
:102CA000DFD904208BF84100DBF8440040F001003C
:102CB000CBF844004CE0DBF800102A68A2EB0902D4
:102CC00082423FF66CAF8A6892067FF535AF2A687C
:102CD000A2EB090282423FF662AF8A6892067FF554
:102CE0002BAF2A68A2EB090282423FF658AF8A68EE
:102CF00092067FF521AF2A68A2EB090282423FF6D5
:102D00004EAF8A689206D8D416E7826892071DD41F
:102D100041F288322B685B1A9342C2D883689B07C2
:102D200014D42B685B1A9342BBD883689B070DD4DD
:102D30002B685B1A9342B4D883689B0706D42B6830
:102D40005B1A9342ADD883689B07E3D50221C1602B
:102D500001208BF8410000208BF84000CDF8208046
:102D60004FF44060CDF814900A96CDE90D660F96A9
:102D700009904FF040700B9006200790EB200290D6
:102D8000FDF7EAFF29689BF84000012858D0012090
:102D90008BF840009BF8410001284ED10020CBF871
:102DA000440082208BF84100DBF80000DBF848206B
:102DB00083689B0609D4016821F00801016002A81C
:102DC0004FF04061FDF7B0FE37E062B3531C25D1F0
:102DD00081688906EFD58168890644BF81685FEA0A
:102DE0008161E8D581688906F2D4E4E783689B06AF
:102DF000E1D52B685B1A934216D883689B06DAD517
:102E00002B685B1A93420FD883689B06D3D52B6837
:102E10005B1A934208D883689B06CCD52B685B1A53
:102E20009342E3D900E0286804208BF84100DBF8E6
:102E3000440040F00100CBF8440000208BF8400033
:102E4000BFF34F8FBFF36F8F3868012320F400303A
:102E500038600020C7F83C02BFF34F8FBFF36F8F7D
:102E6000386743F6E07ABFF34F8F386820F480303C
:102E70003860BFF34F8FF96ECA08C1F3C906C1F3BA
:102E80004E30A6F1020903EBD101731E4FEA827B9B
:102E900001F003044FEA83784FEA89710191F11E32
:102EA000009103E00028A0F101002CD00AEA4015AF
:102EB000314694B1012C4BEA0501C7F8601219465E
:102EC0000BD0022C48EA0501C7F86012494604D02D
:102ED00001992943C7F860120099032EE2D345EA0D
:102EE0008175013105F1404285F0004C05F1804EBD
:102EF0000439C7F86052C7F86022C7F860C2C7F843
:102F000060E2F5D1CEE74EF210010020CEF20001D2
:102F10004FF01042BFF34F8FBFF36F8F08604860D0
:102F20008860042040F20801C9F20000C2F20001EA
:102F300000680860106880F308880868804700BF50
:102F4000FEE700BF020408102040000002E008C8AD
:102F5000121F08C1002AFAD170477047002001E013
:102F600001C1121F002AFBD1704701040810204044
:102F700000040810204001000200040006000800C0
:102F80000A000C001000200040008000000100003A
:102F900000000102030401020304060708090101FD
:102FA00001030701000008040204080101010000F8
:102FB000D02F000800000020080000004C2F00085F
:102FC000D82F000808000020E80400005C2F00084B
:082FD0000090D0030000000096
:040000050800029954
:00000001FF
