:0200000490006A
:1000000000000824651D00901D1B00901F1B009020
:10001000211B0090231B0090251B00900000000076
:10002000000000000000000000000000518500906A
:10003000271B009000000000F1850090558600907D
:10004000B51D0090B51D0090B51D0090B51D009028
:10005000B51D0090B51D0090B51D0090B51D009018
:10006000B51D0090B51D0090B51D0090B51D009008
:10007000B51D0090B51D0090B51D0090B51D0090F8
:10008000B51D0090B51D0090B51D0090B51D0090E8
:10009000B51D0090B51D0090B51D0090B51D0090D8
:1000A000B51D0090291B0090B51D0090B51D009056
:1000B000B51D0090B51D0090B51D0090B51D0090B8
:1000C000B51D0090B51D0090B51D0090B51D0090A8
:1000D000B51D0090B51D0090B51D0090B51D009098
:1000E000B51D0090B51D009000000000B51D0090EA
:1000F000B51D0090B51D0090B51D0090B51D009078
:10010000B51D0090391B0090B51D0090B51D0090E5
:10011000B51D0090B51D0090B51D0090B51D009057
:10012000B51D0090B51D0090B51D0090B51D009047
:10013000B51D0090B51D0090B51D0090B51D009037
:1001400000000000000000000000000000000000AF
:10015000B51D0090B51D0090B51D0090B51D009017
:10016000B51D0090B51D0090B51D0090B51D009007
:10017000B51D0090B51D0090B51D0090B51D0090F7
:10018000B51D0090B51D0090B51D0090B51D0090E7
:10019000B51D0090B51D0090B51D0090B51D0090D7
:1001A000B51D0090B51D0090B51D0090B51D0090C7
:1001B000B51D0090B51D0090B51D0090B51D0090B7
:1001C000B51D0090B51D0090B51D0090B51D0090A7
:1001D000B51D0090B51D0090B51D0090B51D009097
:1001E000B51D0090B51D0090B51D0090B51D009087
:1001F000B51D0090B51D0090B51D0090B51D009077
:10020000B51D0090B51D0090B51D0090B51D009066
:10021000B51D0090B51D0090B51D0090B51D009056
:10022000B51D0090B51D0090B51D009000000000A8
:10023000B51D0090B51D009000000000B51D009098
:10024000B51D0090B51D0090B51D0090B51D009026
:10025000B51D0090B51D0090B51D0090B51D009016
:10026000B51D0090B51D0090B51D0090B51D009006
:10027000B51D0090B51D0090B51D00900000000058
:10028000B51D0090B51D0090B51D00900000000048
:0802900000000000B51D009004
:1002A00010B5054C237833B9044B13B10448AFF3B0
:1002B00000800123237010BDA0080024000000006E
:1002C000D0A1009008B5034B1BB103490348AFF31D
:1002D000008008BD00000000A4080024D0A1009008
:1002E00053B94AB9002908BF00281CBF4FF0FF319D
:1002F0004FF0FF3000F074B9ADF1080C6DE904CE99
:1003000000F006F8DDF804E0DDE9022304B07047F0
:100310002DE9F047089D04468E46002B4DD18A42B8
:10032000944669D9B2FA82F252B101FA02F3C2F1EB
:10033000200120FA01F10CFA02FC41EA030E94407C
:100340004FEA1C48210CBEFBF8F61FFA8CF708FB9D
:1003500016E341EA034306FB07F199420AD91CEB75
:10036000030306F1FF3080F01F81994240F21C81A7
:10037000023E63445B1AA4B2B3FBF8F008FB1033EF
:1003800044EA034400FB07F7A7420AD91CEB040424
:1003900000F1FF3380F00A81A74240F207816444F4
:1003A000023840EA0640E41B00261DB1D440002379
:1003B000C5E900433146BDE8F0878B4209D9002DDD
:1003C00000F0EF800026C5E9000130463146BDE867
:1003D000F087B3FA83F6002E4AD18B4202D38242D1
:1003E00000F2F980841A61EB030301209E46002D80
:1003F000E0D0C5E9004EDDE702B9FFDEB2FA82F2D5
:10040000002A40F09280A1EB0C014FEA1C471FFA32
:100410008CFE0126200CB1FBF7F307FB131140EA19
:1004200001410EFB03F0884208D91CEB010103F1E6
:10043000FF3802D2884200F2CB804346091AA4B2A8
:10044000B1FBF7F007FB101144EA01440EFB00FE7C
:10045000A64508D91CEB040400F1FF3102D2A645E1
:1004600000F2BB800846A4EB0E0440EA03409CE780
:10047000C6F12007B34022FA07FC4CEA030C20FA2D
:1004800007F401FA06F31C43F9404FEA1C4900FA4D
:1004900006F3B1FBF9F8200C1FFA8CFE09FB1811CA
:1004A00040EA014108FB0EF0884202FA06F20BD93D
:1004B0001CEB010108F1FF3A80F08880884240F28D
:1004C0008580A8F102086144091AA4B2B1FBF9F0D1
:1004D00009FB101144EA014100FB0EFE8E4508D9CC
:1004E0001CEB010100F1FF346CD28E456AD9023851
:1004F000614440EA0840A0FB0294A1EB0E01A14236
:10050000C846A64656D353D05DB1B3EB080261EBA3
:100510000E0101FA07F722FA06F3F1401F43C5E97D
:10052000007100263146BDE8F087C2F12003D840B3
:100530000CFA02FC21FA03F3914001434FEA1C47F5
:100540001FFA8CFEB3FBF7F007FB10360B0C43EAE7
:10055000064300FB0EF69E4204FA02F408D91CEB97
:10056000030300F1FF382FD29E422DD90238634495
:100570009B1B89B2B3FBF7F607FB163341EA034135
:1005800006FB0EF38B4208D91CEB010106F1FF3884
:1005900016D28B4214D9023E6144C91A46EA00467B
:1005A00038E72E46284605E70646E3E61846F8E60D
:1005B0004B45A9D2B9EB020864EB0C0E0138A3E756
:1005C0004646EAE7204694E74046D1E7D0467BE737
:1005D000023B614432E7304609E76444023842E7AF
:1005E000704700BF844641EA000313F003036DD156
:1005F000403A41D351F8043B40F8043B51F8043BE6
:1006000040F8043B51F8043B40F8043B51F8043BEC
:1006100040F8043B51F8043B40F8043B51F8043BDC
:1006200040F8043B51F8043B40F8043B51F8043BCC
:1006300040F8043B51F8043B40F8043B51F8043BBC
:1006400040F8043B51F8043B40F8043B51F8043BAC
:1006500040F8043B51F8043B40F8043B51F8043B9C
:1006600040F8043B51F8043B40F8043B51F8043B8C
:1006700040F8043B403ABDD2303211D351F8043B2C
:1006800040F8043B51F8043B40F8043B51F8043B6C
:1006900040F8043B51F8043B40F8043B103AEDD2DB
:1006A0000C3205D351F8043B40F8043B043AF9D22C
:1006B000043208D0D2071CBF11F8013B00F8013BFF
:1006C00001D30B8803806046704700BF082A13D30C
:1006D0008B078DD010F003038AD0C3F10403D21A24
:1006E000DB071CBF11F8013B00F8013B80D331F858
:1006F000023B20F8023B7BE7043AD9D3013A11F8D8
:10070000013B00F8013BF9D20B7803704B78437042
:100710008B7883706046704700B583B08DF8070012
:1007200000224FF40061064801F0F4FEFF2301228D
:100730000DF10701034805F0CBFE03B05DF804FBA3
:10074000002402580019002400B583B08DF807007A
:1007500001224FF40061064801F0DCFEFF23012274
:100760000DF10701034805F0B3FE03B05DF804FB8B
:10077000002402580019002410B582B0044601225A
:100780004FF40061074801F0C5FE230A8DF80430DC
:100790008DF80540FF23022201A9034805F098FEC9
:1007A00002B010BD002402580019002470B505469F
:1007B0000E4601224FF400610A4801F0ABFE0A4CDC
:1007C0000F23E360204605F0BBFD4FF47A733246F9
:1007D0002946204605F07CFE0723E360204605F00D
:1007E000AFFD70BD00240258001900242DE9F0412E
:1007F00080460E4617461D462A20FFF78DFF0F4CF8
:10080000A37B03EB080080B2FFF7B6FFA07B384460
:1008100080B2FFF7B1FF2B20FFF77EFFE07B304473
:1008200080B2FFF7A9FFE07B284480B2FFF7A4FF66
:100830002C20FFF771FFBDE8F08100BFBC08002449
:10084000C0F30F2303F47843C0F34F1202F4FC62A9
:10085000C0F3C40013431843014B1860704700BF36
:10086000BC080024C0F30F2303F47843C0F34F12F5
:1008700002F4FC62C0F3C40013431843014B5860F8
:10088000704700BFBC08002408B5254B587230B132
:10089000022814D0012822D0032830D008BD3620E9
:1008A000FFF73AFF7020FFF74FFF1D4B00229A73AE
:1008B000DA734FF4A0725A81F0229A81EEE7362063
:1008C000FFF72AFF0020FFF73FFF154B00229A7326
:1008D000DA73F0225A814FF4A0729A81DEE7362053
:1008E000FFF71AFFA020FFF72FFF0D4B00229A738E
:1008F000DA734FF4A0725A81F0229A81CEE7362043
:10090000FFF70AFFC020FFF71FFF054B00229A7375
:10091000DA73F0225A814FF4A0729A81BEE700BFC9
:10092000BC080024014B1860704700BFCC080024AD
:100930002DE9F0418846A2F12007FFB200239E4630
:100940001E4621E0234A5168234A22F81E106408FB
:100950000EF1010E1FFA8EFE01339BB2AA889A4255
:100960000FD00CF1010C1FFA8CFCBCF1070F09D859
:1009700014F0010FE6D0174A1168174A22F81E102A
:10098000E5E700230136B6B2144A15682C89B44253
:1009900006D92A6804FB0764145D4FF0000CE4E7F5
:1009A000AA88024492B2EB8843449BB2013B013ACD
:1009B0009BB292B24146FFF719FF084B1B6899881A
:1009C000DB8811FB03F189B20348FFF7EFFEBDE8B6
:1009D000F08100BFBC080024D0080024CC0800240B
:1009E00070B504460E46154609E031462046FFF72D
:1009F0009FFF074B1B6898880444A4B20135054B40
:100A00005B89A34202D92A78002AEED170BD00BFCB
:100A1000CC080024BC08002483880C3B142B1FD86E
:100A2000DFE803F00B1E1E1E0F1E1E1E131E1E1ED1
:100A3000171E1E1E1E1E1E1E1B000A4B0A4A1A608F
:100A40007047084B094A1A607047064B084A1A60FB
:100A50007047044B074A1A607047024B064A1A60F7
:100A6000704700BFCC080024000000240C000024C4
:100A7000180000242400002430000024014B1872C8
:100A8000704700BFBC0800242DE9F04107460E4620
:100A900015469846069C00E0C4B13B685B6936EA9F
:100AA00003030CBF4FF0010C4FF0000CAC450AD112
:100AB00001F09CFAA0EB0800A042EDD3B4F1FF3F97
:100AC000EAD0032000E00020BDE8F0810320FBE72E
:100AD00010B402685369916941F00801916101689D
:100AE0008A6942F010028A6101680A6822F00102F4
:100AF0000A6001680C69294A22400A6101688A6813
:100B000022F440428A6090F88120D2B2042A0DD0AB
:100B100013F0200F0AD0D0F8842042F08002C0F8F1
:100B2000842001688A6942F020028A6190F881205D
:100B3000D2B2032A0DD013F0400F0AD0D0F884208F
:100B400042F00402C0F8842001688A6942F0400241
:100B50008A6113F4007F0AD0D0F8842042F00102A9
:100B6000C0F8842001688A6942F400728A6113F433
:100B7000807F0AD0D0F8843043F00803C0F8843076
:100B80000268936943F4807393610023A0F8623094
:100B9000A0F86A305DF8044B704700BF90FCFFFF7F
:100BA0002DE9F04383B090F88030012B00F0AE8047
:100BB00004460E461546012380F8803001F016FAEF
:100BC000804694F88170FFB2012F27D175B30323BB
:100BD00084F881300023C4F8843046EA064963660D
:100BE000A4F86830A4F86A3063672367A368B3F594
:100BF000C02F1FD022685168454B0B4053602268BC
:100C0000136843F0010313606368B3F5800F19D1D3
:100C10002268136843F40073136013E0002384F820
:100C200080300227384603B0BDE8F083002384F803
:100C30008030F7E72268136843F400631360D9E754
:100C40001E84013D3DB323685A6912F0020F0BD098
:100C5000B4F8622092B2012AF2D9E26B002AEFD0F6
:100C6000C3F82090023DEDE701F0C0F9A0EB0800C9
:100C7000B0F57A7FE6D32046FFF72AFF002384F8F9
:100C80008030D4F8843043F48073C4F88430012376
:100C900084F88130C6E74FF47A730093434600220C
:100CA0004FF480512046FFF7EFFE28B1D4F884308E
:100CB00043F02003C4F884302268136843F480634F
:100CC00013604FF47A730093434600224FF400619F
:100CD0002046FFF7D9FE28B1D4F8843043F0200332
:100CE000C4F884302046FFF7F3FE2268936943F48A
:100CF00000639361002384F88030012384F88130FD
:100D0000D4F88430002B8DD100278BE7022789E7A8
:100D10000000FFFF38B5124D6A89AB89013B013AEB
:100D20009BB292B200210846FFF760FD01224FF40A
:100D300000610C4801F0EEFB0B4C0F23E3602046F2
:100D400005F0FEFA6B89AA8903FB02F2A988204606
:100D5000FFF726FF0723E360204605F0F1FA38BDD0
:100D6000BC080024002402580019002408B50A20F9
:100D700007F0C2FA3620FFF7CFFC0020FFF7E4FCB3
:100D80003A20FFF7C9FC0520FFF7DEFCB220FFF791
:100D9000C3FC0C20FFF7D8FC0C20FFF7D5FC00208B
:100DA000FFF7D2FC3320FFF7CFFC3320FFF7CCFC5A
:100DB000B720FFF7B1FC3520FFF7C6FCBB20FFF7DB
:100DC000ABFC1920FFF7C0FCC020FFF7A5FC2C20CE
:100DD000FFF7BAFCC220FFF79FFC0120FFF7B4FC2D
:100DE000C320FFF799FC1220FFF7AEFCC420FFF7E9
:100DF00093FC2020FFF7A8FCC620FFF78DFC0F20F6
:100E0000FFF7A2FCD020FFF787FCA420FFF79CFC93
:100E1000A120FFF799FCE020FFF77EFCD020FFF730
:100E200093FC0420FFF790FC0D20FFF78DFC1120B0
:100E3000FFF78AFC1320FFF787FC2B20FFF784FCC9
:100E40003F20FFF781FC5420FFF77EFC4C20FFF78A
:100E50007BFC1820FFF778FC0D20FFF775FC0B20BA
:100E6000FFF772FC1F20FFF76FFC2320FFF76CFCDD
:100E7000E120FFF751FCD020FFF766FC0420FFF7CC
:100E800063FC0C20FFF760FC1120FFF75DFC1320D2
:100E9000FFF75AFC2C20FFF757FC3F20FFF754FCCC
:100EA0004420FFF751FC5120FFF74EFC2F20FFF7A5
:100EB0004BFC1F20FFF748FC1F20FFF745FC2020BC
:100EC000FFF742FC2320FFF73FFC2120FFF724FC23
:100ED0001120FFF721FC782007F00EFA2920FFF7F8
:100EE0001BFC0120FFF7D0FC0020FFF7BBFC6FF0DC
:100EF0007F40FFF7A5FCFFF70DFF0648FFF712FD47
:100F00000020FFF7BBFD01224021034801F002FB56
:100F100008BD00BF24000024001C02582DE9F04148
:100F200000AF2D4B9B892D4A1268D288083293FB63
:100F3000F2F3DBB29B00073303F4FF63ADEB030D69
:100F40006E463246264901F003F80546002400E0CB
:100F50000134AC420FDA56F8240000F0D2FF1F4BE8
:100F60001B689B8803FB00F01B4B5B899842EFDDFD
:100F70004FF0FF302DE01B4B1B782B44174A1268B3
:100F8000D288083202FB03F3134A9289934219DC98
:100F90000024AC421CDA114B1B68DB88DFF844806C
:100FA00098F80010083311FB03F156F8242089B299
:100FB0000020FFF715FD013498F80030013388F860
:100FC0000030E6E7FFF7A6FE064B00221A70DFE7C7
:100FD0000020BD46BDE8F081BC080024CC080024F8
:100FE00034E50090D010002401468060C0600020ED
:100FF000086109E002EB40131C3301EB83035960E5
:1010000001321F2AF6DD0130172805DC031D01EB34
:10101000830300225A60F4E77047000008B5064BCE
:10102000186810F0030F00D008BDFFF7DDFF024B7A
:101030001A68024B1A60F7E73C000024D410002421
:1010400008B50F480F4B0360002343600222826003
:10105000C36043648264C364036543658365C36599
:1010600001F084F828B90121054801F0C1F818B948
:1010700008BD00F0DDFAF6E700F0DAFAF8E700BFA5
:10108000D81000240010005202680A4B9A4200D087
:10109000704782B0084BD3F8D42042F01002C3F856
:1010A000D420D3F8D43003F010030193019B02B095
:1010B000704700BF0010005200440258F0B5B9B0AC
:1010C000002333933493359336933793354B1B6812
:1010D0000BB139B0F0BD334B01221A60C0220021A0
:1010E00002A808F0D3FD4FF080720023CDE902235F
:1010F00002A802F05FFC002850D12B4BD3F8D4207B
:1011000042F48052C3F8D420D3F8D43003F480538F
:101110000193019B4FF68373339302273497002684
:101120003596032536950C24379433A91F4801F0D2
:10113000E1F848F237133393349735963695379460
:1011400033A91B4801F0D6F84CF20373339334975C
:1011500035963695379433A9164801F0CBF84FF6FB
:101160003F033393349735963695379433A9124815
:1011700001F0C0F8012333933497359636953794B0
:1011800033A90E4801F0B6F8339434973596369566
:10119000379433A90A4801F0ADF89AE700F048FA0D
:1011A000ABE700BF40110024004402580010025871
:1011B00000180258000C0258001402580008025887
:1011C000001C0258F0B587B00446002305930122A5
:1011D000019210210291039204934FF4805201A9CD
:1011E00004F0DCFF204605F013F80128FAD10223B1
:1011F00001931025029501260396002704974FF4CA
:10120000805201A9204604F0C9FF032301930295EF
:101210000823039304974FF4805201A9204604F059
:10122000BDFF40F2312305930423019302950396F9
:10123000059B04934FF4805201A9204604F0AEFFB1
:1012400040F29631204604F0CAFF07B0F0BD00001E
:1012500000B589B00023019302930393049305938F
:10126000069307931648174A026043600122826082
:101270000822C26010220261402242614FF4C07213
:101280008261C3614FF4006303624FF48053436291
:101290004FF4005383620223019307220292042138
:1012A000039104920322059206930793694404F084
:1012B0004DFF10B909B05DF804FB00F0B9F9F9E78A
:1012C000441100244041005208B5FFF7F7FE08BD65
:1012D00008B5012007F010F8FBE708B508F082FC1C
:1012E00008F090FCFCE7000008B572B6024800F078
:1012F000FCFD62B6F9E700BF64E5009008B508F0B0
:101300008DFC08F08FFCFCE7034B0360034B0B6084
:1013100080231360704700BF8813002488110024C5
:1013200010B59CB0264C0DF1540CA646BEE80F003B
:10133000ACE80F009EE807008CE80700002115A824
:1013400006F0A5FF1F4B18600DF1380C04F11C0EC0
:10135000BEE80F00ACE80F009EE807008CE807002D
:1013600000210EA806F093FF174B18600DF11C0C1E
:1013700004F1380EBEE80F00ACE80F009EE807004D
:101380008CE80700002107A806F081FF0F4B1860CA
:10139000EE4604F1540CBCE80F00AEE80F009CE8E8
:1013A00007008EE807000021684606F070FF084B32
:1013B0001860FFF7DBFC0748FFF704FF1CB010BD07
:1013C000E8A10090801100247C11002478110024F1
:1013D00084110024441100242DE9F04190B0002430
:1013E0000B940C940D940E940F945C4BD3F8E02066
:1013F00042F00402C3F8E020D3F8E02002F0040237
:101400000192019AD3F8E02042F01002C3F8E020E4
:10141000D3F8E02002F010020292029AD3F8E02002
:1014200042F00202C3F8E020D3F8E02002F002020A
:101430000392039AD3F8E02042F00102C3F8E020BF
:10144000D3F8E02002F001020492049AD3F8E020DD
:1014500042F04002C3F8E020D3F8E02002F040025E
:101460000592059AD3F8E02042F00802C3F8E02084
:10147000D3F8E02002F008020692069AD3F8E020A2
:1014800042F02002C3F8E020D3F8E02002F020026E
:101490000792079AD3F8E02042F08002C3F8E020D8
:1014A000D3F8E02002F080020892089AD3F8E020F6
:1014B00042F48062C3F8E020D3F8E02002F48062B6
:1014C0000992099AD3F8E02042F40072C3F8E020B0
:1014D000D3F8E03003F400730A930A9BDFF88880A6
:1014E00022464FF40051404601F014F81C4F2246AA
:1014F0004FF40061384601F00DF81A4D2246C02124
:10150000284601F007F84FF400530B9301260C9680
:101510000D940E940BA9404600F0ECFE4FF40063CE
:101520000B930C960D940E940BA9384600F0E2FE36
:101530004FF480530B930C940D940BA9284600F0A4
:10154000D9FEC0230B930C960D940E940BA928463C
:1015500000F0D0FE10B0BDE8F08100BF004402589A
:1015600000240258001C02580008025808B505481B
:10157000054B036001F08AFA00B908BD00F058F885
:10158000FBE700BF081800240030005202680A4B35
:101590009A4200D0704782B0084BD3F8D42042F072
:1015A0002002C3F8D420D3F8D43003F020030193F1
:1015B000019B02B0704700BF003000520044025847
:1015C00010B584B00024009401940294039400F0B8
:1015D00083FD01238DF800308DF801404FF040422B
:1015E000019218228DF808208DF809408DF80A40E4
:1015F00003228DF80B208DF80C408DF80D408DF8EE
:101600000E308DF80F40684600F084FD042000F095
:1016100071FD04B010BD000008B50268034B9A428A
:1016200000D008BD00F0D6FCFBE700BF0000014081
:1016300072B6FEE700B59DB04C22002109A808F063
:1016400025FB2022002101A808F020FB022001F048
:101650006DFA1D4B9B6913F4005FFAD009230993BF
:101660004FF480330A9301230E93022312931393B2
:1016700005221492C02215921693042217921893F1
:101680000823199300231A931B9309A801F078FAF1
:10169000A8B93F2301930323029300210391082358
:1016A00004934023059306934FF4806207920893B6
:1016B00001A801F0B9FE20B91DB05DF804FBFFF7E9
:1016C000B7FFFFF7B5FF00BF0048025808B51B4B36
:1016D0005B6913F4003F13D1BFF34F8FBFF36F8FDC
:1016E000164B0022C3F85022BFF34F8FBFF36F8F0A
:1016F0005A6942F400325A61BFF34F8FBFF36F8FC4
:1017000000F03AFCFFF75CFFFFF794FFFFF764FE81
:1017100000F0A8FAFFF79CFD00F012F800F052F874
:10172000FFF724FFFFF78CFC00F0CEF806F0E2FB99
:10173000FFF7F6FD06F093FDFEE700BF00ED00E0C9
:1017400008B50A480A4B0360002343607F22826089
:10175000FF22C26003618361C361436103F042FD04
:1017600000B908BDFFF764FFFBE700BF6018002465
:101770000040005810B5B0B00446C02200216846B1
:1017800008F084FA22680D4B9A4201D030B010BDA7
:101790004FF480020023CDE900234FF400732D9312
:1017A000684602F007F928B9054A136F43F400436D
:1017B0001367EBE7FFF73CFFF6E700BF0040005878
:1017C00000440258064B074A1A6000225A609A6089
:1017D0004FF48041D9601A6106225A61704700BFF8
:1017E0008418002400700052F0B5BBB004460021FC
:1017F00035913691379138913991C02204A808F07B
:1018000045FA22682C4B9A4201D03BB0F0BD4FF410
:1018100080320023CDE9042304A802F0CBF800288D
:1018200046D1264BD3F8D42042F48032C3F8D420DA
:10183000D3F8D42002F480320192019AD3F8E02048
:1018400042F00402C3F8E020D3F8E02002F00402E2
:101850000292029AD3F8E02042F00802C3F8E02096
:10186000D3F8E03003F008030393039B4FF4F853DD
:1018700035930227369700243794032638960C2593
:10188000399535A90E4800F035FD04233593369778
:1018900037943896399535A90A4800F02BFD224631
:1018A0000E21312000F0D4FB312000F007FCACE722
:1018B000FFF7BEFEB5E700BF0070005200440258BB
:1018C00000080258000C025808B51548154B036073
:1018D0004FF4800343604FF4C02383600723C36049
:1018E0000023036143614FF000528261C3610362D0
:1018F00043628362C3624FF080424263836320226B
:10190000C263036443648364C3640365436583659E
:1019100004F016FD00B908BDFFF78AFEFBE700BF23
:101920000019002400500140F0B5BDB0044600216C
:101930003791389139913A913B91C02206A808F02D
:10194000A5F922683F4B9A4201D03DB0F0BD3E4B15
:10195000D3F8E02042F08002C3F8E020D3F8E02082
:1019600002F080020092009AD3F8E02042F4007264
:10197000C3F8E020D3F8E03003F400730193019B37
:101980004FF400520023CDE9062306A802F012F816
:10199000002854D12C4BD3F8F02042F48012C3F825
:1019A000F020D3F8F02002F480120292029AD3F8C9
:1019B000E02042F48062C3F8E020D3F8E02002F493
:1019C00080620392039AD3F8E02042F40072C3F8D5
:1019D000E020D3F8E02002F400720492049AD3F8D5
:1019E000E02042F08002C3F8E020D3F8E03003F0BA
:1019F00080030593059B0123379302273897002620
:101A0000399603253A9505243B9437A90F4800F0F1
:101A100071FC4FF480633793389739963A953B942D
:101A200037A90B4800F066FC202337933897399686
:101A30003A953B9437A9074800F05CFC85E7FFF72F
:101A4000F7FDA7E700500140004402580028025863
:101A500000240258001C025800B583B00A4BD3F88A
:101A6000F42042F00202C3F8F420D3F8F43003F07B
:101A700002030193019B00220F216FF0010000F08F
:101A8000E7FA03B05DF804FB004402580F2801D9BF
:101A90000120704710B58AB0044600220146192083
:101AA00000F0D6FA192000F009FB174B1C60174B09
:101AB000D3F8F02042F00102C3F8F020D3F8F03060
:101AC00003F001030093009B01A902A801F03CFE72
:101AD00001F028FE43000E48A0FB03239B0C013BB2
:101AE0000C480D4A026040F2E732C26043600023B6
:101AF0000361836004F0E4FF10B101200AB010BD5F
:101B0000044804F049FEF9E74C0000240044025860
:101B100083DE1B438819002400000140FEE7FEE736
:101B2000FEE7FEE7FEE7704708B5024804F080FED6
:101B300008BD00BF8819002408B5024804F0F0F978
:101B400008BD00BF8418002410B503460C4A0D4997
:101B50000D48006840B10C4800680344521A934293
:101B600006D8094A136010BD0748084C0460F2E724
:101B700008F062F80C2303604FF0FF30F3E700BF7A
:101B80000000082400200000D4190024206C002448
:101B9000294AD2F8883043F47003C2F88830274BC2
:101BA0001B6803F00F03062B06D8244A136823F0A2
:101BB0000F0343F007031360214B1A6842F0010240
:101BC0001A6000221A6119681E4A0A401A601B4BEB
:101BD0001B6813F0080F06D0184A136823F00F0390
:101BE00043F007031360164B00229A61DA611A6210
:101BF000154999621549D962154919635A63996360
:101C0000DA6319645A64196821F4802119601A662C
:101C1000104B1A68104B1340B3F1005F03D20F4B07
:101C20000122C3F808210E4B43F2D2021A60024B84
:101C30004FF010429A60704700ED00E00020005223
:101C4000004402587FEDF6EA000202020000FF01A4
:101C5000800201010010005C0000FFFF00800051C5
:101C60000040005208B51748174B03604FF4E133AA
:101C7000436000238360C36003610C22426183617F
:101C8000C36103624362836205F0FBFB70B900210C
:101C90000C4805F06EFC60B900210A4805F08EFC86
:101CA00050B9084805F046FC48B908BDFFF7C0FC2C
:101CB000EDE7FFF7BDFCEFE7FFF7BAFCF1E7FFF751
:101CC000B7FCF2E7D81900240010014010B5B8B0F5
:101CD0000446002133913491359136913791C022D9
:101CE00002A807F0D3FF22681B4B9A4201D038B0FC
:101CF00010BD01220023CDE9022302A801F05AFE03
:101D000038BB164BD3F8F02042F01002C3F8F02095
:101D1000D3F8F02002F010020092009AD3F8E020ED
:101D200042F00202C3F8E020D3F8E03003F00203EF
:101D30000193019BC02333930223349300233593F3
:101D4000032336930723379333A9054800F0D2FACB
:101D5000CDE7FFF76DFCD4E70010014000440258C6
:101D600000040258DFF834D0FFF712FF0C480D4989
:101D70000D4A002302E0D458C4500433C4188C42E6
:101D8000F9D30A4A0A4C002301E013600432A2424C
:101D9000FBD307F057FFFFF799FC704700000824BA
:101DA000000000249C08002434E80090A0080024CF
:101DB0001C6C0024FEE7000000B583B08DF807001E
:101DC0004FF6FF7301220DF10701034805F08CFA6D
:101DD00003B05DF804FB00BFD819002410B5044619
:101DE00002E00134FFF7E8FF20780028F9D110BDA8
:101DF00070B584B005460E46C30F002A0CBF002301
:101E000003F0010393B9002295FBF6F306FB13558B
:101E1000144601320E494D5D04F110010DEB010035
:101E200000F80C5C1D46002BEED10CE045422D2045
:101E3000FFF7C2FFE7E704F110036B4413F80C0C43
:101E4000FFF7BAFF013C002CF5DA04B070BD00BF0B
:101E500080E5009070B504460D4603E0FFF7ACFF47
:101E60002646741C207800283ED02528F6D1661C12
:101E70006078A0F16303152B33D8DFE803F0270B5C
:101E800032323232323232323232123232322D3257
:101E90001932322001220A2155F8040BFFF7A8FF5E
:101EA000DFE70022082155F8040BFFF7A1FFD8E770
:101EB00000220A2155F8040BFFF79AFFD1E7002210
:101EC000102155F8040BFFF793FFCAE755F8040BF0
:101ED000C0B2FFF771FFC4E755F8040BFFF77EFFB0
:101EE000BFE7FFF769FFBCE770BD0FB408B502A9F3
:101EF00051F8040BFFF7AEFF0020BDE8084004B026
:101F000070470346002000E0013013F8012B002A3F
:101F1000FAD1704708B10D4A10600C4B186858B1DF
:101F20000A4B1B681A7872B191F800C0944504D02E
:101F30000133064A1360F3E77047002203F8012BD0
:101F4000024A13607047014B1A6070476C1A0024F4
:101F500070B50E461546FFF7DDFF002307E05C1C59
:101F600045F8230031460020FFF7D4FF2346002820
:101F7000F5D1184670BD000010B5032000F056F8EA
:101F800001F058F90F498B69C3F303230E4AD35C60
:101F900003F01F03D8408B6903F00F03D35C03F0F9
:101FA0001F0320FA03F3094A1360094B18600F203E
:101FB000FFF76CFD10B10124204610BD0446FFF769
:101FC0004BFDF9E70044025870E5009044000024FE
:101FD00040000024034B1B78034A11680B44136034
:101FE000704700BF48000024701A0024014B186895
:101FF000704700BF701A002438B50446FFF7F6FF9B
:102000000546B4F1FF3F02D0044B1B781C44FFF798
:10201000EDFF401BA042FAD338BD00BF48000024AA
:10202000014B1868000C70470010005C0649CB6833
:1020300023F4E0631B041B0C000200F4E060034384
:10204000024A1A43CA60704700ED00E00000FA053A
:1020500000B5174BDB68C3F30223C3F1070CBCF1D7
:10206000040F28BF4FF0040C03F1040EBEF1060F5D
:1020700014D9033B4FF0FF3E0EFA0CFC21EA0C0191
:1020800099400EFA03F322EA03031943002807DB01
:102090000901C9B2074B19545DF804FB0023E9E7B5
:1020A00000F00F000901C9B2034B1954F4E700BF57
:1020B00000ED00E000E400E014ED00E0002807DBA4
:1020C00000F01F02400901239340024A42F82030E9
:1020D000704700BF00E100E0BFF35F8F044B5A6A16
:1020E00022F480325A620022C3F89420704700BF65
:1020F00000ED00E040F00100054BC3F894005A6A7F
:1021000042F480325A62BFF34F8FBFF36F8F704734
:1021100000ED00E04378144AC2F89830D2F8A030BD
:1021200023F00103C2F8A0304368C2F89C30017B61
:10213000C37A1B0643EA0173817A43EAC143417BB8
:1021400043EA8143817B43EA4143C17B43EA014344
:10215000417A43EA0123017A43EA410301780B43C0
:10216000C2F8A030704700BF00ED00E0002837D073
:1021700010B5044690F86130002B2CD0022384F86F
:10218000613021680A68174B13406268E0690243B6
:1021900013430B6021684A6B134B1340A268A0697C
:1021A000024313434B632268116C104B0B40E168F0
:1021B0000B43136421684B6B23F44013206962695D
:1021C000520542EA005213434B630020606601232C
:1021D00084F8613010BD80F86030FEF755FFCDE720
:1021E00001207047BFFFF8FFF8FEFFFF0000FFFF70
:1021F00090F86030012B74D030B4012380F8603047
:10220000022380F86130C1EBC10200EB8202D46A84
:10221000136B44EA0343956B43EA0553D26B43EADD
:102220004253A4F10902012A21D9C1EBC10200EBFA
:102230008202526B43EA026361BB0468656A2A4A00
:102240002A40134363620268C1EBC10300EB8303BE
:102250009C6A9461DB6A093B012B11D9012380F848
:102260006130002380F86030184630BC7047C1EB05
:10227000C10200EB8202526B02F07F421343DBE7A4
:10228000C1EBC10100EB81014B6B026823F07F437E
:102290009362E3E70B2C1BD0144D0468E26922EA39
:1022A00005021343E3610268C1EBC10300EB830342
:1022B0009C6A1461DB6A093B012BCFD8C1EBC101D9
:1022C00000EB81014B6B026823F07F431362C5E78B
:1022D000C1EBC10200EB8202126C43EA8243044D5F
:1022E000DBE70220704700BFF0FFCC000F0033FF98
:1022F0000F003FFFF0B583B000236BE085685E0000
:102300000324B44025EA0405CC68B4402C4384601F
:10231000446824EA0C0C4C68C4F300149C4044EA62
:102320000C04446068E0DD08083550F8256003F0CF
:1023300007044FEA840C0F2404FA0CF426EA040E76
:102340000C6904FA0CF444EA0E0440F825406BE0F2
:10235000092400E0002404FA0EF42C430CF1020CD2
:10236000694D45F82C404FF0B0442568D44325EA28
:1023700002064F6817F4801F01D042EA05064FF0AD
:10238000B0452E606D6804EA05064F6817F4001F1B
:1023900001D042EA05064FF0B0456E60D5F8845092
:1023A00004EA05064F6817F4003F01D042EA05062B
:1023B0004FF0B045C5F88460D5F880502C404E6889
:1023C00016F4803F01D042EA05044FF0B042C2F853
:1023D000804001330A6832FA03F400F092804FF033
:1023E000010C0CFA03FC1CEA0202F2D04C6804F067
:1023F0000304013C012C81D94C6804F00304032C34
:102400000CD0C4685D004FF0030C0CFA05FC24EA04
:102410000C0C8C68AC4044EA0C04C4604C6804F0BA
:102420000304022C3FF47FAF04684FEA430E4FF0E1
:10243000030C0CFA0EFC24EA0C0C4C6804F00304A8
:1024400004FA0EF444EA0C0404604C6814F4403FAF
:10245000BFD02E4CD4F8F45045F00205C4F8F45027
:10246000D4F8F44004F002040194019C4FEA930C68
:102470000CF10205244C54F8255003F003044FEAF4
:10248000840E0F2404FA0EF425EA0405204CA04221
:102490003FF460AF04F58064A04222D004F580646C
:1024A000A04220D004F58064A0421ED004F58064D0
:1024B000A0421CD004F58064A0421AD004F58064C8
:1024C000A04218D004F58064A04216D004F58064C0
:1024D000A04214D004F58064A0423FF439AF0A242E
:1024E00039E7012437E7022435E7032433E70424DE
:1024F00031E705242FE706242DE707242BE70824DE
:1025000029E703B0F0BD00BF0004005800440258A2
:10251000000002580AB18161704709048161704767
:1025200030B514461D464FF0000E72460BE05FFAC0
:102530008EFC0CF1010C01F802C00132013B002BB2
:10254000F5D10EF1010EBEF10F0F08D810F80E30C4
:1025500002EB030CBCF5807FF1D9012030BD0023D4
:102560008B542A6091F800C01A4611E044F82320E9
:1025700001330132C85C6045F8D0BCF11F0F0BD8A5
:10258000012000FA0CF0904208D952000CF1010C25
:10259000C85C0028EED1E1E70120DFE70120DDE79C
:1025A00070B5ADF5A26D05460C4601AB02AA0DF261
:1025B0000C41FFF7B5FF20BB03460EE0A02202A9A5
:1025C00051F8236002F1280104EB81014E600DF205
:1025D0000C41C95C0139A1540133019A9A4210D9C6
:1025E000EA18127C002AE9D0F02A0DD002F00F017F
:1025F000120902EB820201EB4202013AA12ADED962
:1026000001200DF5A26D70BDA122D8E730B5ADF265
:10261000145D05460C460DF20C5301AA0DF58161BF
:10262000FFF77EFFE0B90346DDF80C259A4217D983
:10263000EA18127C0B2A12D801A951F8231002F1D2
:10264000020C04EB8C0CCCF804100DF5816111F830
:1026500003C00CF1FF3C04F802C00133E4E70120A1
:102660000DF2145D30BD10B590B00B46046804F552
:10267000F861914206D004F5FC61914205D0012039
:1026800010B010BD04F5FB6401E004F5FF64ABB3CA
:1026900001A91846FFF7BAFF0028F1D16FF0F02327
:1026A000236063600C2126E001F13F036B4413F8C3
:1026B0003C3C1B0203F470634A1C0DF1400C0CEB14
:1026C000820212F8382C1A43023901F140036B449C
:1026D00013F83C3C1B0203F4706301F1020C0DF192
:1026E000400E0EEB8C0C1CF838CC43EA0C0343EA8A
:1026F000024344F8043D0129D6D8C1E70020BFE7D2
:1027000010B5ADF54C7D0B46046804F5A06191420F
:1027100007D004F5CC61914206D001200DF54C7D27
:1027200010BD04F2446401E004F2A474002B3FD015
:1027300001A91846FFF734FF0028EFD123460022F5
:1027400004E06FF0F02143F8041B0132022AF8D9AB
:10275000184A1A6002F102125A6002F102129A60DB
:1027600002F10212DA60A2211FE04B1E0DF1040CEF
:102770001CF803301B0203F4706301F127020CEB19
:10278000820212791A4302391CF801301B0203F449
:10279000706301F1280E0CEB8E0C9CF804C043EA28
:1027A0000C0343EA024344F8043D0129DDD8B5E7B0
:1027B0000020B3E7D00FD10F10B5046804F55B74A7
:1027C000102213E0531E924911F803C0931ECB5CF4
:1027D0001B0443EA0C63A2F1030C11F80CC043EA9A
:1027E0000C23043A895C0B4344F80439032AE9D8E2
:1027F000036803F55E7C0C2215E0531E84490B44EC
:1028000093F810E0941E0C44237C1B0443EA0E63EF
:10281000D41E0C44247C43EA0423043A1144097C6A
:102820000B434CF80439032AE7D8046804F56274B2
:10283000102213E0531E774911F803C0931ECB5C9E
:102840001B0443EA0C63A2F1030C11F80CC043EA29
:102850000C23043A895C0B4344F80439032AE9D871
:102860000368D3F82C246C4911404FF6F9220A432F
:10287000C3F82C2403F5856EA02218E0531E654989
:102880000B441C7CA2F1020C8C449CF810301B04FD
:1028900043EA0463A2F1030C8C449CF810C043EAA1
:1028A0000C23043A1144097C0B434EF80439032AE3
:1028B000E4D80268D2F82C349BB243F04073C2F8DB
:1028C0002C340468D4F83C24534B1340C4F83C34F3
:1028D00004F587640C2215E0531C504911F803C01D
:1028E0008B5C1B0443EA0C6302F1FF3C11F80CC043
:1028F00043EA0C23A2F1020C11F80C100B4344F82C
:102900000439043A032AE7D80268D2F83C349BB26F
:1029100043F08073C2F83C340468D4F848343E4A2B
:102920001A4040F60A331343C4F8483404F24444CE
:10293000082218E0531C39490B4493F810C08B1837
:102940001B7C1B0443EA0C6302F1FF3C8C449CF8A3
:1029500010C043EA0C23A2F1020C6144097C0B4332
:1029600044F80439043A032AE4D80268D2F8483417
:102970009BB243F00073C2F848340468D4F858346A
:10298000254A1A4047F202731343C4F8583404F23C
:1029900054440C2215E0531C214911F803C08B5CF0
:1029A0001B0443EA0C6302F1FF3C11F80CC043EA3C
:1029B0000C23A2F1020C11F80C100B4344F804395B
:1029C000043A032AE7D80268D2F858349BB243F09D
:1029D0008073C2F85834036803F59F6CA02214E09A
:1029E000531C0F490B44187C8B181B7C1B0443EAB7
:1029F0000063501E0844007C43EA0023901E0144FB
:102A0000097C0B434CF80439043A032AE8D810BD7A
:102A100058E7009048E600900000FFFF3CE7009078
:102A200094E5009010B50446FFF7C6FE226802F553
:102A3000A06212492046FFF763FE034608B118461C
:102A400010BD226802F5CC620D492046FFF758FE02
:102A500003460028F3D1226802F5F86209492046AE
:102A6000FFF701FE03460028E9D1226802F5FC6267
:102A700005492046FFF7F7FD0346E0E748E60090EA
:102A800094E5009058E700903CE70090002847D07C
:102A900010B5044690F84D30002B39D0022384F84D
:102AA0004D302268136B43F00103136322681368EF
:102AB00023F0010313602268136B23F07E0313637A
:102AC0002268136B43F4005313632268136B43F4BF
:102AD000804313632268936B43F060039363114B4D
:102AE000E363114B236400236364A3642046FFF770
:102AF00099FF90B92268536843F4807353600023B0
:102B000023626362012284F84D202365636510BD52
:102B100080F84C30FEF73AFDC0E701202065F6E76B
:102B20000120704774E70090FCE60090134BDB68CF
:102B300013F0040F07D1114BDB6803F00703834246
:102B40001AD00120704710B50C4AD36823F0070350
:102B50001843D060FFF74AFA0446084B5B6813F449
:102B6000005F07D1FFF742FA001BB0F57A7FF4D976
:102B7000012000E0002010BD0020704700480258EE
:102B8000002800F0398338B50446036813F0010FBC
:102B900025D0944A136903F03803926A102B15D09C
:102BA000182B0FD06368B3F5803F3FD0002B53D173
:102BB0008C4B1A6822F480321A601A6822F4802240
:102BC0001A6038E002F00302022AEBD1854B1B6841
:102BD00013F4003F03D06368002B00F00F832368D9
:102BE00013F0020F00F0A1807E4A1369926A13F07D
:102BF00038035AD0182B55D0E368002B00F0DE8044
:102C000078490A6822F0190213430B60FFF7EEF9C6
:102C10000546744B1B6813F0040F40F0AD80FFF7BE
:102C2000E5F9401B0228F4D90320EEE26D4A13684F
:102C300043F48033136063682BB3FFF7D7F905467D
:102C4000684B1B6813F4003FC9D1FFF7CFF9401B55
:102C50006428F5D90320D8E2B3F5A02F09D0614B41
:102C60001A6822F480321A601A6822F480221A60EC
:102C7000E1E75C4B1A6842F480221A601A6842F459
:102C800080321A60D7E7FFF7B1F90546554B1B684C
:102C900013F4003FA3D0FFF7A9F9401B6428F5D92E
:102CA0000320B2E212F0030FA6D14E4B1B6813F0C3
:102CB000040F03D0E368002B00F0A282494A136896
:102CC00023F01903E1680B431360FFF78FF9054602
:102CD000444B1B6813F0040F06D1FFF787F9401B24
:102CE0000228F5D9032090E2FFF79AF941F2030395
:102CF000984212D82269402A07D03A494B6823F4F7
:102D00007C3343EA02334B600FE0364A536823F4C6
:102D10007C3343F40033536007E0324A536823F0B6
:102D2000FE43216943EA01635360236813F0100FE7
:102D300000F088802B4A136903F03803926A082B4D
:102D400056D0182B50D0E369002B00F0B880254AEC
:102D5000136843F080031360FFF748F90546214BE1
:102D60001B6813F4807F40F08880FFF73FF9401B19
:102D70000228F4D9032048E2FFF752F941F2030395
:102D8000984212D82269402A07D016494B6823F48A
:102D90007C3343EA02334B60C7E7124A536823F49B
:102DA0007C3343F400335360BFE70E4A536823F08B
:102DB000FE43216943EA01635360B6E7094A136899
:102DC00023F001031360FFF711F90546054B1B685B
:102DD00013F0040FA9D0FFF709F9401B0228F5D919
:102DE000032012E20044025802F00302012AAAD191
:102DF000A14B1B6813F4807F03D0E369802B40F064
:102E00000182FFF70DF941F20303984212D8226ABA
:102E1000202A07D098494B6823F0F84343EA82639D
:102E20004B600FE0944A536823F0F84343F080432B
:102E3000536007E0904AD36823F07C53216A43EA49
:102E40000163D360236813F0080F60D06369002B1F
:102E500049D0894A536F43F001035367FFF7C6F81F
:102E60000546854B5B6F13F0020F50D1FFF7BEF89C
:102E7000401B0228F5D90320C7E1FFF7D1F841F242
:102E80000303984212D8226A202A07D07A494B6855
:102E900023F0F84343EA82634B60D3E7764A5368F2
:102EA00023F0F84343F080435360CBE7724AD36882
:102EB00023F07C53216A43EA0163D360C2E76E4A80
:102EC000136823F080031360FFF790F805466A4B00
:102ED0001B6813F4807FB5D0FFF788F8401B0228E9
:102EE000F5D9032091E1644A536F23F0010353673E
:102EF000FFF77CF80546604B5B6F13F0020F06D0BE
:102F0000FFF774F8401B0228F5D903207DE1236800
:102F100013F0200F29D0A3699BB1574A136843F4DB
:102F200080531360FFF762F80546534B1B6813F498
:102F3000005F1AD1FFF75AF8401B0228F5D9032089
:102F400063E14D4A136823F480531360FFF74EF892
:102F50000546494B1B6813F4005F06D0FFF746F89F
:102F6000401B0228F5D903204FE1236813F0040F1A
:102F700021D1636A002B00F047813F4A126902F0B9
:102F80003802182A00F0EE80022B79D03A4A1368F2
:102F900023F080731360FFF729F80446364B1B6853
:102FA00013F0007F00F0DC80FFF720F8001B022800
:102FB000F4D9032029E1314A136843F48073136084
:102FC000FFF714F805462D4B1B6813F4807F06D1DC
:102FD000FFF70CF8401B6428F5D9032015E1A3681E
:102FE000012B0AD00BBB244B1A6F22F001021A6787
:102FF0001A6F22F004021A6704E01F4A136F43F0AD
:1030000001031367A36833B3FEF7F0FF05461A4BBD
:103010001B6F13F0020FACD1FEF7E8FF401B41F22B
:1030200088339842F3D90320EFE0052B09D0124BE7
:103030001A6F22F001021A671A6F22F004021A674F
:10304000E0E70D4B1A6F42F004021A671A6F42F064
:1030500001021A67D6E7FEF7C9FF0546064B1B6F4C
:1030600013F0020F85D0FEF7C1FF401B41F28833F9
:103070009842F3D90320C8E000440258004802589F
:10308000694A136823F080731360FEF7AFFF0546AB
:10309000654B1B6813F0007F06D0FEF7A7FF401BAF
:1030A0000228F5D90320B0E05F4B996A5F4A0A40D5
:1030B000A16AE06A41EA00110A439A62226B013A6E
:1030C000C2F30802616B0139490289B20A43A16B5C
:1030D0000139090401F4FE010A43E16B01390906D3
:1030E00001F0FE410A431A63DA6A22F00102DA6251
:1030F000596B4F4A0A40A16C42EAC1025A63DA6A2C
:1031000022F00C02216C0A43DA62DA6A22F002022F
:10311000616C0A43DA62DA6A42F48032DA62DA6AAD
:1031200042F40032DA62DA6A42F48022DA62DA6A5F
:1031300042F00102DA621A6842F080721A60FEF709
:1031400055FF0446384B1B6813F0007F06D1FEF78D
:103150004DFF001B0228F5D9032056E0002054E063
:10316000002052E0304A916A106B012B4ED001F0E2
:103170000303A26A93424BD1C1F30511E36A99425A
:1031800048D1C0F30802236B013B9A4244D1C0F3FB
:103190004622636B013B9A4240D1C0F30642A36BC7
:1031A000013B9A423CD1C0F30660E36B013B98427D
:1031B00038D11D4B5B6BC3F3CC03A26C9A4201D197
:1031C000002022E0184AD36A23F00103D362FEF7FD
:1031D0000DFF0546FEF70AFFA842FBD0124A516BCD
:1031E000134B0B40A16C43EAC1035363D36A43F012
:1031F0000103D362002008E001207047012004E0B1
:10320000012002E0012000E0002038BD0120FCE7A1
:103210000120FAE70120F8E70120F6E70120F4E7B2
:103220000120F2E70120F0E7004402580CFCFFFF08
:103230000700FFFF744B1B6903F03803102B00F0ED
:10324000DE80182B10D00BB1704870476E4B1B6896
:1032500013F0200F00F0D5806B4B1868C0F3C1004D
:103260006B4B23FA00F0704710B4674A916A01F083
:103270000301946AC4F30510D36A03F0010C536B85
:10328000C3F3CC030CFB03F307EE903AF8EE677A36
:1032900014F47C7F00F09380012965D0022900F0AE
:1032A0009180E1B107EE100AF8EE476A9FED596A86
:1032B00086EE267A544B1B6BC3F3080306EE903A56
:1032C000F8EE666A9FED546A67EE867A76EEA77A24
:1032D000F7EE006A77EEA67A27EE277A60E01368A9
:1032E00013F0200F23D011461268C2F3C102484BDD
:1032F000D34007EE103AF8EE476A07EE100AB8EE30
:10330000476A86EE867A0B6BC3F3080306EE903AA3
:10331000F8EE666A9FED406A67EE867A76EEA77AE7
:10332000F7EE006A77EEA67A27EE277A38E007EE06
:10333000100AF8EE476A9FED396A86EE267A324B1C
:103340001B6BC3F3080306EE903AF8EE666A9FED36
:10335000326A67EE867A76EEA77AF7EE006A77EE43
:10336000A67A27EE277A1BE007EE100AF8EE476AE6
:103370009FED286A86EE267A234B1B6BC3F3080366
:1033800006EE903AF8EE666A9FED236A67EE867A5B
:1033900076EEA77AF7EE006A77EEA67A27EE277A1E
:1033A000194B1B6BC3F34623013307EE903AF8EE3B
:1033B000677AC7EE276AFCEEE67A17EE900A5DF8A8
:1033C000044B704707EE100AF8EE476A9FED146A47
:1033D00086EE267A0C4B1B6BC3F3080306EE903A7D
:1033E000F8EE666A9FED0C6A67EE867A76EEA77A4B
:1033F000F7EE006A77EEA67A27EE277AD0E709483B
:1034000070470348704700BF0044025800093D0060
:103410000090D0030024744A000000390024744C4A
:1034200020BCBE4B40787D01002800F0328170B591
:103430000D4604469B4B1B6803F00F038B420BD2D7
:10344000984A136823F00F030B431360136803F0CB
:103450000F038B4240F01F81236813F0040F0CD040
:103460002269914B9B6903F070039A4205D98E49FA
:103470008B6923F070031A438A61236813F0080FE5
:103480000CD06269884BDB6903F070039A4205D95E
:103490008549CB6923F070031A43CA61236813F08E
:1034A000100F0CD0A269804BDB6903F4E0639A42F1
:1034B00005D97D49CB6923F4E0631A43CA612368C7
:1034C00013F0200F0CD0E269774B1B6A03F07003F6
:1034D0009A4205D974490B6A23F070031A430A62B1
:1034E000236813F0020F0CD0E2686F4B9B6903F066
:1034F0000F039A4205D96C498B6923F00F031A43D5
:103500008A61236813F0010F41D0674A936923F45D
:103510007063A1680B4393616368022B0AD0032B8D
:1035200027D0012B2CD0604A126812F0040F06D16C
:103530000120ADE0126812F4003F00F0AE805A495D
:103540000A6922F0070213430B61FEF74FFD06469E
:10355000554B1B6903F038036268B3EBC20F16D0FA
:10356000FEF744FD801B41F288339842F0D90320D6
:103570008EE04D4A126812F0007FE0D1012087E012
:10358000494A126812F4807FD9D1012080E0236873
:1035900013F0020F0CD0E268434B9B6903F00F035A
:1035A0009A4205D240498B6923F00F031A438A617E
:1035B0003C4B1B6803F00F03AB420AD9394A13682E
:1035C00023F00F032B431360136803F00F03AB4288
:1035D00065D1236813F0040F0CD02269324B9B692C
:1035E00003F070039A4205D22F498B6923F07003D0
:1035F0001A438A61236813F0080F0CD062692A4BC2
:10360000DB6903F070039A4205D22749CB6923F0A6
:1036100070031A43CA61236813F0100F0CD0A2691B
:10362000214BDB6903F4E0639A4205D21E49CB6962
:1036300023F4E0631A43CA61236813F0200F0CD00F
:10364000E269194B1B6A03F070039A4205D21649CE
:103650000B6A23F070031A430A62FFF7EBFD12496D
:103660008B69C3F30323114AD35C03F01F03D840D3
:103670008B6903F00F03D35C03F01F0320FA03F3FD
:103680000B4A13600B4B18600B4B1868FEF7FEF9E2
:1036900070BD012070470120FAE70120F8E7012002
:1036A000F6E700BF002000520044025870E5009089
:1036B00044000024400000244C00002408B5FFF71B
:1036C000B9FD0B4A9369C3F303230A49CB5C03F0AA
:1036D0001F0320FA03F3926902F00F02885C00F0E6
:1036E0001F0023FA00F0044A1060044A136008BD6A
:1036F0000044025870E5009044000024400000247B
:1037000008B5FFF7DBFF054BDB69C3F30213044A7F
:10371000D35C03F01F03D84008BD00BF004402582B
:1037200070E5009008B5FFF7C9FF054BDB69C3F3EF
:103730000223044AD35C03F01F03D84008BD00BF36
:103740000044025870E500903F230360114B1A6952
:1037500002F0070242609A6902F4706282609A691C
:1037600002F00F02C2609A6902F070020261DA6927
:1037700002F070024261DA6902F4E06282611B6A5F
:1037800003F07003C361044B1B6803F00F030B606D
:10379000704700BF0044025800200052404B9B6A13
:1037A00003F00303032B79D070B505460E463C4A5F
:1037B000136823F080631360FEF718FC0446384B4F
:1037C0001B6813F0006F06D0FEF710FC031B022BE2
:1037D000F5D9032070BD324B9A6A22F47C322968F5
:1037E00042EA01329A626A68013AC2F30802A968A1
:1037F0000139490289B20A43E9680139090401F42F
:10380000FE010A4329690139090601F0FE410A4314
:103810009A63DA6A22F0C00269690A43DA62DA6AF4
:1038200022F02002A9690A43DA62DA6A22F0100261
:10383000DA62D96B1B4A0A40E96942EAC102DA63DB
:10384000DA6A42F01002DA62C6B91A46DB6A43F459
:103850000023D362124A136843F080631360FEF7BB
:10386000C5FB04460E4B1B6813F0006F14D1FEF726
:10387000BDFB001B0228F5D90320ABE7012E05D0C4
:10388000074AD36A43F40013D362E3E7044AD36AD6
:1038900043F48013D362DDE700209BE701207047EB
:1038A000004402580700FFFF404B9B6A03F00303EC
:1038B000032B79D070B505460E463C4A136823F0B9
:1038C00080531360FEF792FB0446384B1B6813F0DD
:1038D000005F06D0FEF78AFB031B022BF5D90320FD
:1038E00070BD324B9A6A22F07C72296842EA01521A
:1038F0009A626A68013AC2F30802A968013949026A
:1039000089B20A43E9680139090401F4FE010A4356
:1039100029690139090601F0FE410A431A64DA6A8D
:1039200022F4406269690A43DA62DA6A22F40072B8
:10393000A9690A43DA62DA6A22F48072DA62596C9F
:103940001B4A0A40E96942EAC1025A64DA6A42F44F
:103950008072DA62C6B91A46DB6A43F48003D36226
:10396000124A136843F080531360FEF73FFB04468E
:103970000E4B1B6813F0005F14D1FEF737FB001BE2
:103980000228F5D90320ABE7012E05D0074AD36AF8
:1039900043F08073D362E3E7044AD36A43F400033D
:1039A000D362DDE700209BE7012070470044025806
:1039B0000700FFFFF8B50446036813F0006F30D02E
:1039C000836EB3F5001F26D00ED8EBB1B3F5801F80
:1039D00007D102210830FFF7E1FE054645B12E462A
:1039E00021E0012635461EE0B3F5401F09D1002530
:1039F000984A136D23F44013A16E0B431365002600
:103A000011E0012635460EE0924AD36A43F40033B2
:103A1000D3620025ECE702212830FFF745FF054679
:103A2000DCE700263546236813F4807F14D0A36DAD
:103A3000042B32D8DFE803F003232A080800854A64
:103A4000D36A43F40033D36255BB824A136D23F02B
:103A50000703A16D0B431365236813F4007F31D076
:103A6000E36D802B4CD020D8002B43D0402B19D1B4
:103A7000002104F10800FFF791FE05461AE000213D
:103A800004F10800FFF78AFE0546DDE7002104F196
:103A90002800FFF709FF0546D6E701263546DBE794
:103AA0002E46D9E7012635460CE0C02B02D0B3F5EF
:103AB000807F1CD15DBB674A136D23F4E073E16D19
:103AC0000B431365236813F4806F46D0D4F8A830F5
:103AD000B3F5800F39D01FD88BB3B3F5001F18D1C1
:103AE000002104F10800FFF759FE05461AE00126FF
:103AF0003546E7E7574AD36A43F40033D362D9E740
:103B0000002104F12800FFF7CFFE0546D2E72E463C
:103B1000D8E70126354620E0B3F5C00F02D0B3F553
:103B2000000F09D1C5B94B4A936D23F46003D4F853
:103B3000A8100B43936510E0012635460DE0454A79
:103B4000D36A43F40033D362ECE7002104F1280088
:103B5000FFF7AAFE0546E5E72E46236813F4006F3B
:103B600024D0D4F8AC30B3F1007F42D00ED8002B73
:103B700039D0B3F1807F06D1002104F10800FFF7AE
:103B80000DFE054608E0012635460FE0B3F1407F03
:103B900002D0B3F1806F23D1002D31D12D4A936D26
:103BA00023F0E063D4F8AC100B439365236813F063
:103BB000007F2ED0E36C202B40D026D833B1102BC1
:103BC00020D1244AD36A43F40033D362002D3CD180
:103BD000204AD36C23F03003E16C0B43D36418E02C
:103BE00001263546E2E71B4AD36A43F40033D36229
:103BF000D2E7002104F12800FFF756FE0546CBE787
:103C00002E46D3E70126354603E0302BDED00126D1
:103C10003546236813F4805F2DD0236EB3F5005F23
:103C20004FD019D8002B46D0B3F5805F0FD10021BB
:103C300004F10800FFF7B2FD054613E0022104F18C
:103C40000800FFF7ABFD0546C0E72E46E1E7012679
:103C5000354610E000440258B3F5405F02D0B3F59A
:103C6000804F25D1002D33D1774A136D23F4E043E3
:103C7000216E0B431365236813F4005F38D0636E25
:103C8000B3F5003F53D028D843B1B3F5803F21D1DD
:103C9000012104F10800FFF781FD0546002D4DD1FB
:103CA000694A136D23F4E023616E0B4313651FE033
:103CB00001263546DFE7644AD36A43F40033D36212
:103CC000D0E7002104F12800FFF7EEFD0546C9E723
:103CD0002E46D0E7012635460AE0B3F5802FDDD029
:103CE000B3F5A02FDAD0B3F5403FD7D00126354643
:103CF000236813F4804F31D0D4F8B030B3F1005FB3
:103D000045D020D843B1B3F1805F19D1012104F12E
:103D10000800FFF743FD0546002D3FD14A4A936D49
:103D200023F0E043D4F8B0100B43936516E0012173
:103D300004F12800FFF7B8FD0546AFE72E46D7E7A8
:103D4000012635460AE0B3F1804FE5D0B3F1A04F2C
:103D5000E2D0B3F1405FDFD001263546236813F48B
:103D6000004F09D0236FB3F1805F19D0B3F1005F2A
:103D700024D0D3B101263546236813F0807F33D099
:103D8000A36C032B5BD8DFE803F027225327012124
:103D900004F12800FFF788FD0546BDE72E46DDE764
:103DA000294AD36A43F40033D36275B9264A136DA6
:103DB00023F04053216F0B431365DDE7012104F12C
:103DC0000800FFF7EBFC0546EFE72E46D4E71E4A56
:103DD000D36A43F40033D362A5BB1B4AD36C23F0F0
:103DE0000303A16C0B43D364236813F4800F2DD11C
:103DF000236813F0010F00F0A580E36F282B00F279
:103E00009F80DFE803F08D9D9D9D9D9D9D9D879DDD
:103E10009D9D9D9D9D9D969D9D9D9D9D9D9D8D9DE9
:103E20009D9D9D9D9D9D8D9D9D9D9D9D9D9D8D007F
:103E3000022104F10800FFF7B1FC0546CCE701269A
:103E40003546D1E72E46CFE700440258914A136821
:103E500043F480731360FEF7C9F807468D4B1B6867
:103E600013F4807F05D1FEF7C1F8C01B6428F5D993
:103E70000325002D4AD1884B1B6FD4F8B420534042
:103E800013F4407F0CD0844B1A6F22F44072196FE8
:103E900041F480311967196F21F4803119671A676D
:103EA000D4F8B430B3F5807F15D08DBBD4F8B430DE
:103EB00003F44072B2F5407F1ED0774A136923F4B1
:103EC0007C53136174490B6FD4F8B420C2F30B0216
:103ED00013430B678CE7FEF789F807466E4B1B6FA1
:103EE00013F0020FE1D1FEF781F8C01B41F28833D5
:103EF0009842F3D90325D8E76748026922F47C5237
:103F0000664901EA131313430361DBE72E466FE7AB
:103F10002E466DE7012104F10800FFF73FFC05463E
:103F2000E5B95D4A536D23F03803E16F0B435365E8
:103F300008E0012104F12800FFF7B6FC0546EFE791
:103F400001263546236813F0020F17D0A36F052B07
:103F500028D8DFE803F00B05200B0B0B2E46F1E70A
:103F6000012104F10800FFF719FC0546EDB94A4AA2
:103F7000536D23F00703A16F0B435365236813F0C0
:103F8000040F23D0D4F89430052B45D8DFE803F094
:103F9000150F3D151515012104F12800FFF784FCCC
:103FA0000546E3E701263546E8E72E46E6E7012128
:103FB00004F10800FFF7F2FB054685BB364A936D16
:103FC00023F00703D4F894100B439365236813F090
:103FD000200F34D0D4F89030B3F1005F4ED023D806
:103FE00043B1B3F1805F1CD1002104F10800FFF759
:103FF000D5FB0546002D48D1274A536D23F0E043F9
:10400000D4F890100B43536519E0012104F1280006
:10401000FFF74AFC0546D0E701263546D6E72E468F
:10402000D4E7012635460AE0B3F1804FE2D0B3F180
:10403000A04FDFD0B3F1405FDCD0012635462368C6
:1040400013F0400F37D0D4F89C30B3F5006F53D045
:1040500026D843B1B3F5806F19D1002104F10800CF
:10406000FFF79CFB0546002D4DD10B4A936D23F4C1
:10407000E053D4F89C100B4393651CE0022104F13B
:104080002800FFF711FC0546B4E72E46D7E70126C6
:10409000354610E00048025800440258CFFFFF00A8
:1040A000B3F5805FDFD0B3F5A05FDCD0B3F5406F30
:1040B000D9D001263546236813F0800F33D0D4F8C9
:1040C000A030B3F5804F00F0A38021D843B1B3F501
:1040D000005F1AD1002104F10800FFF75FFB0546DD
:1040E000002D40F09C80814A936D23F46043D4F806
:1040F000A0100B43936516E0022104F12800FFF79E
:10410000D3FB0546AFE72E46D5E7012635460AE044
:10411000B3F5004FE4D0B3F5204FE1D0B3F5C04F75
:10412000DED001263546236813F0080F0CD0D4F8F2
:104130008430B3F5805F74D06C4A536D23F44053E0
:10414000D4F884100B435365236813F0100F0CD080
:10415000D4F89830B3F5807F6CD0644A936D23F423
:104160004073D4F898100B439365236813F4002F21
:104170000BD0D4F8A430B3F5803F74D0B3F5003F32
:1041800067D0002B5FD001263546236813F4802FBB
:104190000CD0D4F88830B3F5001F7CD0B3F5401FA5
:1041A0006FD0B3F5801F67D001263546236813F41E
:1041B000803F08D0236D002B76D0B3F5803F00F010
:1041C000818001263546236813F0005F40F083802C
:1041D000236813F4003F00F08E80D4F88030B3F5EC
:1041E000807F00F0EC8040F28380B3F5007F03D045
:1041F000B3F5407F40F0E180002D40F0E6803B4A7F
:10420000536D23F44073D4F880100B43536572E070
:10421000022104F12800FFF747FB054660E72E4620
:1042200081E7022104F12800FFF73EFB002883D03C
:10423000012681E7022104F12800FFF735FB002861
:104240008BD0012689E7002104F10800FFF7A6FAC8
:1042500005467DB9254A936D23F44033D4F8A41064
:104260000B43936591E7022104F12800FFF71CFB43
:104270000546EEE72E4688E71C4AD36A43F400332E
:10428000D3627DB9194A536D23F44013D4F88810D2
:104290000B4353658AE7012104F12800FFF704FB73
:1042A0000546EEE72E4681E7104AD36A43F4003311
:1042B000D36275B90D4AD36C23F48033216D0B435F
:1042C000D36480E7022104F10800FFF767FA05468E
:1042D000EFE72E4677E7022104F12800FFF7E4FA22
:1042E00000283FF475AF012672E700BF0044025872
:1042F000002B81D00126236813F4801F06D04F4A7B
:10430000136D23F00043616F0B431365236813F0B3
:10431000805F07D0494A136923F48043D4F8B8106A
:104320000B431361236813F4001F06D0434A136D37
:1043300023F08073E16E0B431365236813F0804F05
:1043400009D03E4B1A6922F400421A611A69D4F866
:10435000BC100A431A612368002B06DA374AD36C73
:1043600023F04053616D0B43D364236813F4000FB3
:1043700007D0324A536D23F44003D4F88C100B431A
:104380005365636813F0010F21D1636813F0020FC6
:1043900026D1636813F0040F2BD1636813F0080F64
:1043A00030D1636813F0100F35D1636813F0200F1C
:1043B0003AD106B101263046F8BD01269BE71F4AD7
:1043C000D36A43F40033D36216E72E4693E7002105
:1043D00004F10800FFF7E2F90028D6D00646D4E73A
:1043E000012104F10800FFF7D9F90028D1D00646D1
:1043F000CFE7022104F10800FFF7D0F90028CCD064
:104400000646CAE7002104F12800FFF74DFA00280C
:10441000C7D00646C5E7012104F12800FFF744FA9A
:104420000028C2D00646C0E7022104F12800FFF7A9
:104430003BFA0028BDD00646BBE700BF0044025847
:1044400008B5FFF73BF9054B1B6AC3F30213044A97
:10445000D35C03F01F03D84008BD00BF00440258DE
:1044600070E5009010B5774A916A946AC4F3053EEE
:10447000D36AC3F3001CD36BC3F3CC030CFB03F36D
:1044800014F47C3F00F0D88001F0030107EE903A6D
:10449000F8EE677A012965D0022900F0B080E1B119
:1044A00007EE10EAB8EE477A9FED676AC6EE076A34
:1044B000644B9B6BC3F3080307EE103AB8EE477AE0
:1044C0009FED626A67EE867A77EE277AB7EE007A1A
:1044D00077EE877A66EEA76A60E0136813F0200F24
:1044E00023D011461268C2F3C102594BD34007EEE4
:1044F000103AB8EE477A06EE90EAB8EE666AC7EE72
:10450000066A8B6BC3F3080307EE103AB8EE477ADE
:104510009FED4E6A67EE867A77EE277AB7EE007ADD
:1045200077EE877A66EEA76A38E007EE10EAB8EE13
:10453000477A9FED486AC6EE076A424B9B6BC3F30E
:10454000080307EE103AB8EE477A9FED406A67EE2F
:10455000867A77EE277AB7EE007A77EE877A66EE7C
:10456000A76A1BE007EE10EAB8EE477A9FED366ABD
:10457000C6EE076A334B9B6BC3F3080307EE103A92
:10458000B8EE477A9FED316A67EE867A77EE277A42
:10459000B7EE007A77EE877A66EEA76A294A936BC0
:1045A000C3F3462307EE103AB8EE477AB7EE006A37
:1045B00037EE067AC6EE877AFCEEE77AC0ED007A2F
:1045C000936BC3F3064307EE103AB8EE477A37EE23
:1045D000067AC6EE877AFCEEE77AC0ED017A936B35
:1045E000C3F3066307EE903AF8EE677A77EE867AC1
:1045F00086EEA77ABCEEC77A80ED027A10BD07EE90
:1046000010EAB8EE477A9FED146AC6EE076A0D4BC2
:104610009B6BC3F3080307EE103AB8EE477A9FEDA1
:104620000B6A67EE867A77EE277AB7EE007A77EE36
:10463000877A66EEA76AB1E7002303604360836070
:10464000DCE700BF004402580024744A000000392F
:104650000090D0030024744C20BCBE4B10B5774AA8
:10466000916A946AC4F3055ED36AC3F3002C536C59
:10467000C3F3CC030CFB03F314F07C7F00F0D88071
:1046800001F0030107EE903AF8EE677A012965D050
:10469000022900F0B080E1B107EE10EAB8EE477AE7
:1046A0009FED676AC6EE076A644B1B6CC3F3080391
:1046B00007EE103AB8EE477A9FED626A67EE867AA7
:1046C00077EE277AB7EE007A77EE877A66EEA76AFA
:1046D00060E0136813F0200F23D011461268C2F374
:1046E000C102594BD34007EE103AB8EE477A06EEB6
:1046F00090EAB8EE666AC7EE066A0B6CC3F308036D
:1047000007EE103AB8EE477A9FED4E6A67EE867A6A
:1047100077EE277AB7EE007A77EE877A66EEA76AA9
:1047200038E007EE10EAB8EE477A9FED486AC6EE29
:10473000076A424B1B6CC3F3080307EE103AB8EE4E
:10474000477A9FED406A67EE867A77EE277AB7EE72
:10475000007A77EE877A66EEA76A1BE007EE10EA2A
:10476000B8EE477A9FED366AC6EE076A334B1B6C8C
:10477000C3F3080307EE103AB8EE477A9FED316AAB
:1047800067EE867A77EE277AB7EE007A77EE877A49
:1047900066EEA76A294A136CC3F3462307EE103A64
:1047A000B8EE477AB7EE006A37EE067AC6EE877A39
:1047B000FCEEE77AC0ED007A136CC3F3064307EE14
:1047C000103AB8EE477A37EE067AC6EE877AFCEEF4
:1047D000E77AC0ED017A136CC3F3066307EE903AF3
:1047E000F8EE677A77EE867A86EEA77ABCEEC77A1D
:1047F00080ED027A10BD07EE10EAB8EE477A9FED21
:10480000146AC6EE076A0D4B1B6CC3F3080307EE70
:10481000103AB8EE477A9FED0B6A67EE867A77EE2C
:10482000277AB7EE007A77EE877A66EEA76AB1E765
:104830000023036043608360DCE700BF004402584C
:104840000024744A000000390090D0030024744C06
:1048500020BCBE4B10B5774A916A946AC4F3051E1A
:10486000D36A03F0010C536BC3F3CC030CFB03F3CB
:1048700014F47C7F00F0D88001F0030107EE903A39
:10488000F8EE677A012965D0022900F0B080E1B125
:1048900007EE10EAB8EE477A9FED676AC6EE076A40
:1048A000644B1B6BC3F3080307EE103AB8EE477A6C
:1048B0009FED626A67EE867A77EE277AB7EE007A26
:1048C00077EE877A66EEA76A60E0136813F0200F30
:1048D00023D011461268C2F3C102594BD34007EEF0
:1048E000103AB8EE477A06EE90EAB8EE666AC7EE7E
:1048F000066A0B6BC3F3080307EE103AB8EE477A6B
:104900009FED4E6A67EE867A77EE277AB7EE007AE9
:1049100077EE877A66EEA76A38E007EE10EAB8EE1F
:10492000477A9FED456AC6EE076A424B1B6BC3F39D
:10493000080307EE103AB8EE477A9FED406A67EE3B
:10494000867A77EE277AB7EE007A77EE877A66EE88
:10495000A76A1BE007EE10EAB8EE477A9FED396AC6
:10496000C6EE076A334B1B6BC3F3080307EE103A1E
:10497000B8EE477A9FED316A67EE867A77EE277A4E
:10498000B7EE007A77EE877A66EEA76A294A136B4C
:10499000C3F3462307EE103AB8EE477AB7EE006A43
:1049A00037EE067AC6EE877AFCEEE77AC0ED007A3B
:1049B000136BC3F3064307EE103AB8EE477A37EEAF
:1049C000067AC6EE877AFCEEE77AC0ED017A136BC1
:1049D000C3F3066307EE903AF8EE677A77EE867ACD
:1049E00086EEA77ABCEEC77A80ED027A10BD07EE9C
:1049F00010EAB8EE477A9FED146AC6EE076A0D4BCF
:104A00001B6BC3F3080307EE103AB8EE477A9FED2D
:104A10000B6A67EE867A77EE277AB7EE007A77EE42
:104A2000877A66EEA76AB1E700230360436083607C
:104A3000DCE700BF004402580024744C0000003939
:104A40000090D0030024744A20BCBE4B00B58BB04C
:104A5000A0F580730B432ED0A0F500730B437ED0DE
:104A6000A0F580630B4300F0D480A0F500630B43F6
:104A700000F02C81A0F580530B4300F08B81A0F552
:104A800000530B4300F0E381A0F500230B4300F03B
:104A90002C82A0F580330B4300F06F82A0F5804399
:104AA0000B4300F09082A0F5004050EA010300F0B3
:104AB000D382002001E3954B1B6D03F00703042B09
:104AC00000F2F282DFE803F005101B032600904895
:104AD000F3E28E4B186810F0007000F0EE8207A829
:104AE000FFF7B8FE0898E8E2884B186810F00060FD
:104AF00000F0E38204A8FFF7B5FC0498DDE2834BE5
:104B0000186810F0005000F0D88201A8FFF7A6FD49
:104B10000198D2E27D4AD36C03F04053126812F040
:104B2000040F07D033B9794B1B68C3F3C10379482D
:104B3000D840C2E2754A126812F4807F03D0B3F104
:104B4000805F00F0B382714A126812F4003F00F0F7
:104B5000AF82B3F1005F00F0AD820020ADE26B4B9D
:104B60001B6D03F4E073802B33D015D9C02B00F0FC
:104B7000A382B3F5807F1FD1644AD36C03F0405306
:104B8000126812F0040F2FD073BB604B1B68C3F385
:104B9000C1036048D84090E283B1402B0AD15B4BFF
:104BA000186810F0006000F0888204A8FFF75AFC33
:104BB000049882E2002080E200207EE2534B1868D5
:104BC00010F0007000F0798207A8FFF743FE089804
:104BD00073E24E4B186810F0005000F06E8201A88E
:104BE000FFF73CFD019868E2484A126812F4807FA2
:104BF00003D0B3F1805F00F06382444A126812F47C
:104C0000003F00F05F82B3F1005F00F05D820020A2
:104C100053E23E4B9B6D03F46003B3F5800F35D038
:104C200016D9B3F5C00F00F05182B3F5000F20D1B3
:104C3000364AD36C03F04053126812F0040F30D0A0
:104C40007BBB324B1B68C3F3C1033248D84034E20C
:104C50008BB1B3F5001F0AD12C4B186810F000601F
:104C600000F02B8204A8FFF7FDFB049825E200204A
:104C700023E2002021E2254B186810F0007000F0BC
:104C80001C8207A8FFF7E6FD089816E21F4B18687C
:104C900010F0005000F0118201A8FFF7DFFC01982E
:104CA0000BE21A4A126812F4807F03D0B3F1805FDE
:104CB00000F00E82154A126812F4003F00F00A82DA
:104CC000B3F1005F00F008820020F6E10F4B9B6D0E
:104CD00003F0E063B3F1007F3CD01DD9B3F1407F16
:104CE00000F0FC81B3F1806F27D1084AD36C03F048
:104CF0004053126812F0040F37D0002B35D1034B0C
:104D00001B68C3F3C1030348D840D6E100440258EE
:104D10000080BB000090D0038BB1B3F1807F0AD13B
:104D20009A4B186810F0006000F0C78104A8FFF7E4
:104D300099FB0498C1E10020BFE10020BDE1934B45
:104D4000186810F0007000F0B88107A8FFF782FD26
:104D50000898B2E18D4B186810F0005000F0AD815A
:104D600001A8FFF77BFC0198A7E1884A126812F4BA
:104D7000807F03D0B3F1805F00F0B281834A126874
:104D800012F4003F00F0AE81B3F1005F00F0AC819F
:104D9000002092E17D4B1B6D03F4E043B3F5005F0F
:104DA00035D016D9B3F5405F00F0A081B3F5804F40
:104DB00020D1764AD36C03F04053126812F0040FEE
:104DC00030D07BBB714B1B68C3F3C1037048D84024
:104DD00073E18BB1B3F5805F0AD16C4B186810F0AA
:104DE000006000F06A8104A8FFF73CFB049864E1CE
:104DF000002062E1002060E1644B186810F0007050
:104E000000F05B8107A8FFF725FD089855E15F4B8F
:104E1000186810F0005000F0508101A8FFF71EFC48
:104E200001984AE1594A126812F4807F03D0B3F125
:104E3000805F00F05D81554A126812F4003F00F077
:104E40005981B3F1005F00F05781002035E14F4BED
:104E50001B6D03F4E023B3F5403F32D016D8B3F511
:104E6000803F23D0B3F5003F0AD1484B186810F0BB
:104E7000005000F0228101A8FFF7F0FB02981CE12E
:104E800013B9FEF73DFC18E1002016E1B3F5802FC1
:104E900023D0B3F5A02F07D13C4B186810F4003095
:104EA00000F00B813B4808E1002006E1374B186811
:104EB00010F0006000F0018104A8FFF7D3FA059814
:104EC000FBE0324B186810F0040000F0F6801B681D
:104ED000C3F3C1032E48D840EFE02C4B186810F400
:104EE000807000F0EA802C48E7E0284B9B6D03F4CB
:104EF0004033B3F5803F10D0B3F5003F18D00BB16D
:104F00000020DAE0214B186810F0006000F0D58036
:104F100004A8FFF7A7FA0498CFE01C4B186810F01C
:104F2000005000F0CA8001A8FFF798FB0398C4E086
:104F3000164AD36C03F04053126812F0040F07D0E6
:104F400033B9124B1B68C3F3C1031148D840B4E016
:104F50000E4A126812F4807F03D0B3F1805F00F034
:104F6000CD800A4A126812F4003F00F0C980B3F104
:104F7000005F00F0C78000209FE0044BDB6C13F45F
:104F800080330BD0ABB9002097E000BF004402583B
:104F90000090D00340787D0100093D005A4B18680D
:104FA00010F0007000F0898007A8FFF753FC089804
:104FB00083E0554B186810F000607ED004A8FFF71E
:104FC00051FA069879E0504B9B6D03F0E043B3F142
:104FD000405F2FD015D8B3F1805F21D0B3F1005FCF
:104FE00009D1494B186810F0005066D001A8FFF7AE
:104FF00035FB029861E013B9FFF722FA5DE000206B
:105000005BE0B3F1804F20D0B3F1A04F06D13E4B0F
:10501000186810F4003050D03C484EE000204CE0BE
:10502000394B186810F0006047D004A8FFF71AFA4F
:10503000059842E0344B186810F004003DD01B681E
:10504000C3F3C1033248D84037E02F4B186810F43F
:10505000807032D02F4830E02B4B1B6D03F0405353
:10506000B3F1805F0CD0B3F1005F13D00BB100201F
:1050700023E0254B186810F400301ED023481CE0B4
:10508000214B186810F0007017D007A8FFF7E2FB5B
:10509000089812E01C4B186810F000600DD004A8AE
:1050A000FFF7E0F9059808E0002006E0194804E061
:1050B000002002E0154800E017480BB05DF804FB43
:1050C0001448FAE70020F8E71048F6E71248F4E73A
:1050D0001048F2E70020F0E70C48EEE70E48ECE756
:1050E0000C48EAE70020E8E70848E6E70A48E4E772
:1050F0000848E2E70020E0E70448DEE70548DCE78F
:105100000020DAE70148D8E70044025840787D01E2
:105110000090D00300093D000080BB0038B5044674
:1051200003680A4ADA60FCF761FF05462368DB681A
:1051300013F0200F07D1FCF759FF401BB0F57A7F21
:10514000F4D9032000E0002038BD00BF5FFF03005A
:1051500070B50368DA6812F0400F02D000252846C7
:1051600070BD04464FF0FF32DA60FCF73FFF0646A1
:1051700000252368DB6813F0400FF0D1032DEED03B
:10518000FCF734FF831BB3F57A7FF2D9032584F84B
:105190002150EEE710B50446114BDA6822F0800288
:1051A000DA609B6813F0200F07D1FFF7B7FF0346C3
:1051B000A0B1032384F8213010E0094A936823F05A
:1051C00020039360FFF7AAFF034610B1032384F87E
:1051D000213003498A6842F020028A60184610BDD7
:1051E0000040005800284AD038B5044690F82130D5
:1051F00063B1022384F821302368DA6812F0100FBB
:1052000009D00020012384F8213038BD80F82030F7
:10521000FCF7B0FAEDE7CA225A62236853225A62B9
:105220002046FFF795FF90B158B92268D36C23F060
:105230000303D3642168CB6CE26965692A43134395
:10524000CB642368FF225A620028DED1DAE72268A5
:1052500091680C4B0B40936021688A6863682069F1
:105260000343A069034313438B60A168E36822688A
:1052700043EA014313612046FFF78CFFD4E7012086
:10528000704700BFBFFF8FFF70B582B00446002398
:105290000193006802F0DAFA054610B1284602B020
:1052A00070BD206802F00EFEB0F1004F07D0012360
:1052B000E363E36B012B0BD02E46284614E000235A
:1052C000E363206802F0C2FA0028F2D00546E5E761
:1052D0000021206802F041FC0028EDD04FF08055FD
:1052E000DCE7019B01330193019A4FF6FE739A426A
:1052F00013D896B90021206802F02FFCD0B91249CA
:10530000206802F02BFD0646B0B90021206802F0AB
:1053100088FAC30FE5D01E46E3E7019A4FF6FE7305
:105320009A420CD80023A36310F080430AD00123D3
:10533000A363B3E70546B1E74FF08055AEE74FF002
:105340008075ABE71D46A9E7000010C170B5446A3F
:10535000836A1F2B15D870BD306802F03BFA2070AD
:10536000C0F307236370C0F30743A370000EE0701F
:1053700004340135072DEFD97462B36A203BB36260
:10538000E9E706460025F5E770B582B0C469036A0F
:105390001F2B1CD802B070BD23780193627843EABA
:1053A00002230193A27843EA02430193E27843EA9D
:1053B00002630193043401A9306802F00EFA01354A
:1053C000072DE9D9F461336A203B3362E2E70646F0
:1053D0000025F5E7F0B587B005460E46FCF706FE5A
:1053E00007460021286802F01CFA10F0007F64D103
:1053F0004021286802F0EEFA034610B16A6B6A6336
:105400005DE0696C0904286802F0A7FB034610B14F
:105410006A6B6A6353E04FF0FF33009340230193BC
:105420006023029302230393002304930123059333
:105430006946286802F0F8F9286802F0F2FB034692
:1054400080B16A6B6A633AE0286802F0C3F946F8F3
:10545000040B0134072CF7D9FCF7C8FDC01BB0F1D1
:10546000FF3F2FD02B685C6B14F4957404D15B6BF9
:1054700013F4004FF0D0EDE75A6B12F0080F24D16F
:105480005A6B12F0020F22D15B6B13F0200F20D168
:105490002868436B13F480530CD002F09BF946F854
:1054A000040BFCF7A3FDC01BB0F1FF3FF0D14FF0A0
:1054B000004304E0084A826301E04FF400631846A9
:1054C00007B0F0BD4FF00043F9E70823F7E70223E8
:1054D000F5E72023F3E700BF3A0F0018F0B589B0D5
:1054E00004460F46FCF782FD054600230093019316
:1054F0000821206802F06EFA064610B1304609B065
:10550000F0BD616C0904206802F027FB0646002804
:10551000F4D14FF0FF330293082303933023049315
:1055200002230593002306930123079302A9206811
:1055300002F07AF9206802F042FB064630B1DDE75E
:10554000FCF754FD431BB3F1FF3F46D02068426B8C
:1055500040F22A531A420ED1436B13F4002FEFD1BD
:10556000002EEDD102F036F90090206802F032F9F9
:1055700001900136E4E7436B13F0080F24D1436B2D
:1055800013F0020F23D1466B16F0200622D1144BE4
:105590008363019A130203F47F0343EA0263110A4F
:1055A00001F47F410B4343EA12633B60009A13020C
:1055B00003F47F0343EA0263110A01F47F410B43C2
:1055C00043EA12637B6099E70826866396E7022622
:1055D000866393E72026866390E74FF000468DE7C9
:1055E0003A0F001810B582B00446002100910191D5
:1055F000006802F016F910F0007F13D169462046CA
:10560000FFF76CFF80B9019B13F4802F0ED0616C03
:105610000904206802F0A1FA30B90221206802F0E2
:10562000B5FA01E04FF4006002B010BD4FF08060A9
:10563000FAE710B582B0044600210091019100689C
:1056400002F0EFF810F0007F13D169462046FFF713
:1056500045FF80B9019B13F4803F0ED0616C0904B3
:10566000206802F07AFA30B90021206802F08EFA40
:1056700001E04FF4006002B010BD4FF08060FAE727
:1056800070B581B104460E46416C0904006802F011
:10569000AFFA054608B1284670BD0021206802F027
:1056A000C0F83060F7E74FF00065F4E72DE9F0410E
:1056B00086B00446002949D016461F46884690F811
:1056C0003050EDB2012D5AD100234363D319026D3E
:1056D000934241D8032380F8303003680022DA6215
:1056E00061627B028362826B012A00D076024FF0F6
:1056F000FF3200920193902302930223039300232D
:10570000049305936946206802F08EF82268D368F6
:1057100043F04003D3602368C3F858802368012214
:105720001A6597421DD98223E3623146206802F050
:1057300083F9E8B12368144A9A63636B1843606382
:10574000012384F830300023E36219E0436B43F017
:1057500000634363012513E0436B43F0007343632D
:105760000EE08123E3623146206802F04CF9E0E765
:105770002268D36B43F49573D363002500E00225C0
:10578000284606B0BDE8F081FF0FE01F2DE9F0418B
:1057900086B00446002948D016461F46884690F831
:1057A0003050EDB2012D59D100234363D319026D5E
:1057B000934240D8032380F8303003680022DA6235
:1057C000E1617B020362826B012A00D076024FF016
:1057D000FF320092019390230293002303930493DA
:1057E00005936946206802F01FF82268D36843F0E9
:1057F0004003D3602368C3F85880236801221A65E8
:1058000097421DD9A023E3623146206802F046F991
:10581000E8B12368144A9A63636B184360630123F9
:1058200084F830300023E36219E0436B43F00063F7
:105830004363012513E0436B43F0007343630EE0C1
:105840009023E3623146206802F00FF9E0E7226816
:10585000D36B43F48D73D363002500E00225284603
:1058600006B0BDE8F08100BFFF0FE01F70470000E9
:10587000C36D9B0F0B70C36DC3F383634B7090F8C4
:105880005F3003F003038B7090F85E30CB7090F8BC
:105890005D300B7190F85C304B71036E1B0DCB804B
:1058A000B0F8623003F00F030B72036EC3F3C03322
:1058B0004B72036EC3F380338B72036EC3F34033BA
:1058C000CB72036EC3F300330B7300234B73836BF4
:1058D000002B40F08680026E40F6FC7303EA8203E0
:1058E000426E43EA92730B61436EC3F3C2630B755E
:1058F00090F8673003F007034B75436EC3F34253D0
:105900008B75436EC3F38243CB75436EC3F3C233CF
:105910000B760B69013383640A7E02F007020232C0
:10592000934083640A7A02F00F0C012202FA0CF20F
:10593000C264520A02FB03F303654FF4007343652C
:10594000436EC3F380334B76436EC3F3C6138B763B
:10595000436E03F07F03CB76836EDB0F0B77836E92
:10596000C3F341734B77836EC3F382638B77836E8C
:10597000C3F38353CB77836EC3F3405381F8203056
:10598000002381F82130B0F86A2002F0010281F88A
:105990002220826EC2F3C03281F82320826EC2F3CD
:1059A000803281F82420826EC2F3403281F82520B3
:1059B000826EC2F3003281F82620826EC2F3812209
:1059C00081F82720826EC2F3012281F82820826E9E
:1059D000C2F3460281F82920012281F82A201846C4
:1059E0007047012B11D1036E1B0403F47C13B0F834
:1059F000662013430B610B6901339B0283640365CB
:105A00004FF40073C36443659AE70368054A9A63D9
:105A1000436B43F080534363012380F830301846D2
:105A2000704700BFFF0FE01F30B58DB00446002364
:105A3000ADF80230FCF7DAFA0546206801F0D8FE2E
:105A4000002867D0A36B032B17D1A36B032B2FD098
:105A5000BDF8023063BB0DF10201206802F0E6F9E7
:105A60000346002858D1FCF7C1FA431B41F28732A4
:105A70009342EDD94FF000434EE0206802F01AF94E
:105A80000346002848D10021206801F0CAFEE066E4
:105A90000421206801F0C5FE20670821206801F07C
:105AA000C0FE60670C21206801F0BBFEA067CCE758
:105AB000A36B032B1CD0BDF802106164090420689D
:105AC00002F00EF9034638BB0021206801F0A9FE60
:105AD000E0650421206801F0A4FE2066082120680A
